{
  "contractName": "DiaMonde",
  "abi": [
    {
      "constant": true,
      "inputs": [],
      "name": "hash",
      "outputs": [
        {
          "name": "",
          "type": "uint256"
        }
      ],
      "payable": false,
      "stateMutability": "view",
      "type": "function"
    },
    {
      "constant": true,
      "inputs": [
        {
          "name": "_hash",
          "type": "uint256"
        }
      ],
      "name": "isRegistered",
      "outputs": [
        {
          "name": "",
          "type": "bool"
        }
      ],
      "payable": false,
      "stateMutability": "view",
      "type": "function"
    },
    {
      "constant": false,
      "inputs": [
        {
          "name": "_mine_date",
          "type": "uint256"
        },
        {
          "name": "_mine_loc",
          "type": "string"
        },
        {
          "name": "_raw_weight",
          "type": "uint256"
        }
      ],
      "name": "mine",
      "outputs": [],
      "payable": false,
      "stateMutability": "nonpayable",
      "type": "function"
    },
    {
      "constant": false,
      "inputs": [
        {
          "name": "_hash",
          "type": "uint256"
        },
        {
          "name": "_cut_factoryloc",
          "type": "string"
        },
        {
          "name": "_cut_grade",
          "type": "string"
        },
        {
          "name": "_polish_grade",
          "type": "string"
        },
        {
          "name": "_cut_mesurements",
          "type": "uint256[3]"
        }
      ],
      "name": "cut",
      "outputs": [],
      "payable": false,
      "stateMutability": "nonpayable",
      "type": "function"
    },
    {
      "constant": false,
      "inputs": [
        {
          "name": "_hash",
          "type": "uint256"
        },
        {
          "name": "_man_loc",
          "type": "string"
        },
        {
          "name": "_comp_name",
          "type": "string"
        },
        {
          "name": "_material",
          "type": "string"
        },
        {
          "name": "_product",
          "type": "string"
        }
      ],
      "name": "manufacture",
      "outputs": [],
      "payable": false,
      "stateMutability": "nonpayable",
      "type": "function"
    },
    {
      "constant": false,
      "inputs": [
        {
          "name": "_hash",
          "type": "uint256"
        },
        {
          "name": "_cer_measurements",
          "type": "uint256[3]"
        },
        {
          "name": "_cer_weight",
          "type": "uint256"
        },
        {
          "name": "_cer_grade",
          "type": "string"
        }
      ],
      "name": "certificate",
      "outputs": [],
      "payable": false,
      "stateMutability": "nonpayable",
      "type": "function"
    },
    {
      "constant": true,
      "inputs": [
        {
          "name": "_hash",
          "type": "uint256"
        }
      ],
      "name": "getmine",
      "outputs": [
        {
          "name": "raw_weight",
          "type": "uint256"
        },
        {
          "name": "mine_loc",
          "type": "string"
        },
        {
          "name": "mine_date",
          "type": "uint256"
        }
      ],
      "payable": false,
      "stateMutability": "view",
      "type": "function"
    },
    {
      "constant": true,
      "inputs": [
        {
          "name": "_hash",
          "type": "uint256"
        }
      ],
      "name": "getcut",
      "outputs": [
        {
          "name": "cut_factoryloc",
          "type": "string"
        },
        {
          "name": "cut_mesurements",
          "type": "uint256[3]"
        },
        {
          "name": "cut_grade",
          "type": "string"
        },
        {
          "name": "polish_grade",
          "type": "string"
        }
      ],
      "payable": false,
      "stateMutability": "view",
      "type": "function"
    },
    {
      "constant": true,
      "inputs": [
        {
          "name": "_hash",
          "type": "uint256"
        }
      ],
      "name": "getmanufacture",
      "outputs": [
        {
          "name": "man_loc",
          "type": "string"
        },
        {
          "name": "comp_name",
          "type": "string"
        },
        {
          "name": "material",
          "type": "string"
        },
        {
          "name": "product",
          "type": "string"
        }
      ],
      "payable": false,
      "stateMutability": "view",
      "type": "function"
    },
    {
      "constant": true,
      "inputs": [
        {
          "name": "_hash",
          "type": "uint256"
        }
      ],
      "name": "getcer",
      "outputs": [
        {
          "name": "cer_measurements",
          "type": "uint256[3]"
        },
        {
          "name": "cer_weight",
          "type": "uint256"
        },
        {
          "name": "cer_grade",
          "type": "string"
        }
      ],
      "payable": false,
      "stateMutability": "view",
      "type": "function"
    }
  ],
  "bytecode": "0x6080604052737c2c6d9f404bb083a154cc7da19974668153c85f600260006101000a81548173ffffffffffffffffffffffffffffffffffffffff021916908373ffffffffffffffffffffffffffffffffffffffff16021790555073aa71b4177e9d00bc15d2e50071d98740cd25ccf5600360006101000a81548173ffffffffffffffffffffffffffffffffffffffff021916908373ffffffffffffffffffffffffffffffffffffffff160217905550733e1abe71fa0e35ef167544bb51bc3c281bfa89f3600460006101000a81548173ffffffffffffffffffffffffffffffffffffffff021916908373ffffffffffffffffffffffffffffffffffffffff1602179055507322ef52207c832ab7bbc50dfbcfc1a1c75742da0f600560006101000a81548173ffffffffffffffffffffffffffffffffffffffff021916908373ffffffffffffffffffffffffffffffffffffffff16021790555034801561016457600080fd5b506144bb806101746000396000f3006080604052600436106100a4576000357c0100000000000000000000000000000000000000000000000000000000900463ffffffff16806309bd5a60146100a95780633ae5325a146100d45780634ba46ab814610281578063517cf3821461030e578063579a6988146103675780637f13dfb8146103ac578063831097fe14610596578063e58eef2a1461064a578063e84dfecc14610726578063e917525b14610775575b600080fd5b3480156100b557600080fd5b506100be6107f4565b6040518082815260200191505060405180910390f35b3480156100e057600080fd5b506100ff600480360381019080803590602001909291905050506107fa565b604051808060200185600360200280838360005b8381101561012e578082015181840152602081019050610113565b505050509050018060200180602001848103845288818151815260200191508051906020019080838360005b8381101561017557808201518184015260208101905061015a565b50505050905090810190601f1680156101a25780820380516001836020036101000a031916815260200191505b50848103835286818151815260200191508051906020019080838360005b838110156101db5780820151818401526020810190506101c0565b50505050905090810190601f1680156102085780820380516001836020036101000a031916815260200191505b50848103825285818151815260200191508051906020019080838360005b83811015610241578082015181840152602081019050610226565b50505050905090810190601f16801561026e5780820380516001836020036101000a031916815260200191505b5097505050505050505060405180910390f35b34801561028d57600080fd5b5061030c60048036038101908080359060200190929190803590602001908201803590602001919091929391929390803590602001908201803590602001919091929391929390803590602001908201803590602001919091929391929390803590602001908201803590602001919091929391929390505050610eba565b005b34801561031a57600080fd5b5061036560048036038101908080359060200190929190806060019091929192908035906020019092919080359060200190820180359060200191909192939192939050505061172d565b005b34801561037357600080fd5b5061039260048036038101908080359060200190929190505050611f23565b604051808215151515815260200191505060405180910390f35b3480156103b857600080fd5b506103d760048036038101908080359060200190929190505050611f55565b6040518080602001806020018060200180602001858103855289818151815260200191508051906020019080838360005b83811015610423578082015181840152602081019050610408565b50505050905090810190601f1680156104505780820380516001836020036101000a031916815260200191505b50858103845288818151815260200191508051906020019080838360005b8381101561048957808201518184015260208101905061046e565b50505050905090810190601f1680156104b65780820380516001836020036101000a031916815260200191505b50858103835287818151815260200191508051906020019080838360005b838110156104ef5780820151818401526020810190506104d4565b50505050905090810190601f16801561051c5780820380516001836020036101000a031916815260200191505b50858103825286818151815260200191508051906020019080838360005b8381101561055557808201518184015260208101905061053a565b50505050905090810190601f1680156105825780820380516001836020036101000a031916815260200191505b509850505050505050505060405180910390f35b3480156105a257600080fd5b506105c160048036038101908080359060200190929190505050612611565b6040518084815260200180602001838152602001828103825284818151815260200191508051906020019080838360005b8381101561060d5780820151818401526020810190506105f2565b50505050905090810190601f16801561063a5780820380516001836020036101000a031916815260200191505b5094505050505060405180910390f35b34801561065657600080fd5b5061067560048036038101908080359060200190929190505050612cba565b6040518084600360200280838360005b838110156106a0578082015181840152602081019050610685565b5050505090500183815260200180602001828103825283818151815260200191508051906020019080838360005b838110156106e95780820151818401526020810190506106ce565b50505050905090810190601f1680156107165780820380516001836020036101000a031916815260200191505b5094505050505060405180910390f35b34801561073257600080fd5b50610773600480360381019080803590602001909291908035906020019082018035906020019190919293919293908035906020019092919050505061336f565b005b34801561078157600080fd5b506107f26004803603810190808035906020019092919080359060200190820180359060200191909192939192939080359060200190820180359060200191909192939192939080359060200190820180359060200191909192939192939080606001909192919290505050613893565b005b60015481565b6060610804614268565b60608061080f61428b565b6000808781526020019081526020016000206101c060405190810160405290816000820154815260200160018201548152602001600282018054600181600116156101000203166002900480601f0160208091040260200160405190810160405280929190818152602001828054600181600116156101000203166002900480156108db5780601f106108b0576101008083540402835291602001916108db565b820191906000526020600020905b8154815290600101906020018083116108be57829003601f168201915b50505050508152602001600382018054600181600116156101000203166002900480601f01602080910402602001604051908101604052809291908181526020018280546001816001161561010002031660029004801561097d5780601f106109525761010080835404028352916020019161097d565b820191906000526020600020905b81548152906001019060200180831161096057829003601f168201915b50505050508152602001600482016003806020026040519081016040528092919082600380156109c2576020028201915b8154815260200190600101908083116109ae575b50505050508152602001600782018054600181600116156101000203166002900480601f016020809104026020016040519081016040528092919081815260200182805460018160011615610100020316600290048015610a645780601f10610a3957610100808354040283529160200191610a64565b820191906000526020600020905b815481529060010190602001808311610a4757829003601f168201915b50505050508152602001600882018054600181600116156101000203166002900480601f016020809104026020016040519081016040528092919081815260200182805460018160011615610100020316600290048015610b065780601f10610adb57610100808354040283529160200191610b06565b820191906000526020600020905b815481529060010190602001808311610ae957829003601f168201915b50505050508152602001600982018054600181600116156101000203166002900480601f016020809104026020016040519081016040528092919081815260200182805460018160011615610100020316600290048015610ba85780601f10610b7d57610100808354040283529160200191610ba8565b820191906000526020600020905b815481529060010190602001808311610b8b57829003601f168201915b50505050508152602001600a82018054600181600116156101000203166002900480601f016020809104026020016040519081016040528092919081815260200182805460018160011615610100020316600290048015610c4a5780601f10610c1f57610100808354040283529160200191610c4a565b820191906000526020600020905b815481529060010190602001808311610c2d57829003601f168201915b50505050508152602001600b82018054600181600116156101000203166002900480601f016020809104026020016040519081016040528092919081815260200182805460018160011615610100020316600290048015610cec5780601f10610cc157610100808354040283529160200191610cec565b820191906000526020600020905b815481529060010190602001808311610ccf57829003601f168201915b50505050508152602001600c82018054600181600116156101000203166002900480601f016020809104026020016040519081016040528092919081815260200182805460018160011615610100020316600290048015610d8e5780601f10610d6357610100808354040283529160200191610d8e565b820191906000526020600020905b815481529060010190602001808311610d7157829003601f168201915b50505050508152602001600d8201600380602002604051908101604052809291908260038015610dd3576020028201915b815481526020019060010190808311610dbf575b5050505050815260200160108201548152602001601182018054600181600116156101000203166002900480601f016020809104026020016040519081016040528092919081815260200182805460018160011615610100020316600290048015610e7f5780601f10610e5457610100808354040283529160200191610e7f565b820191906000526020600020905b815481529060010190602001808311610e6257829003601f168201915b5050505050815250509050806060015181608001518260a001518360c001518393508292508191508090509450945094509450509193509193565b610ec261428b565b600460009054906101000a900473ffffffffffffffffffffffffffffffffffffffff1673ffffffffffffffffffffffffffffffffffffffff163373ffffffffffffffffffffffffffffffffffffffff16141515610fad576040517f08c379a000000000000000000000000000000000000000000000000000000000815260040180806020018281038252602d8152602001807f596f7520617265206e6f742072656769737465726564206173206120736f727481526020017f696e6720617574686f726974790000000000000000000000000000000000000081525060400191505060405180910390fd5b6000808b81526020019081526020016000206101c060405190810160405290816000820154815260200160018201548152602001600282018054600181600116156101000203166002900480601f0160208091040260200160405190810160405280929190818152602001828054600181600116156101000203166002900480156110795780601f1061104e57610100808354040283529160200191611079565b820191906000526020600020905b81548152906001019060200180831161105c57829003601f168201915b50505050508152602001600382018054600181600116156101000203166002900480601f01602080910402602001604051908101604052809291908181526020018280546001816001161561010002031660029004801561111b5780601f106110f05761010080835404028352916020019161111b565b820191906000526020600020905b8154815290600101906020018083116110fe57829003601f168201915b5050505050815260200160048201600380602002604051908101604052809291908260038015611160576020028201915b81548152602001906001019080831161114c575b50505050508152602001600782018054600181600116156101000203166002900480601f0160208091040260200160405190810160405280929190818152602001828054600181600116156101000203166002900480156112025780601f106111d757610100808354040283529160200191611202565b820191906000526020600020905b8154815290600101906020018083116111e557829003601f168201915b50505050508152602001600882018054600181600116156101000203166002900480601f0160208091040260200160405190810160405280929190818152602001828054600181600116156101000203166002900480156112a45780601f10611279576101008083540402835291602001916112a4565b820191906000526020600020905b81548152906001019060200180831161128757829003601f168201915b50505050508152602001600982018054600181600116156101000203166002900480601f0160208091040260200160405190810160405280929190818152602001828054600181600116156101000203166002900480156113465780601f1061131b57610100808354040283529160200191611346565b820191906000526020600020905b81548152906001019060200180831161132957829003601f168201915b50505050508152602001600a82018054600181600116156101000203166002900480601f0160208091040260200160405190810160405280929190818152602001828054600181600116156101000203166002900480156113e85780601f106113bd576101008083540402835291602001916113e8565b820191906000526020600020905b8154815290600101906020018083116113cb57829003601f168201915b50505050508152602001600b82018054600181600116156101000203166002900480601f01602080910402602001604051908101604052809291908181526020018280546001816001161561010002031660029004801561148a5780601f1061145f5761010080835404028352916020019161148a565b820191906000526020600020905b81548152906001019060200180831161146d57829003601f168201915b50505050508152602001600c82018054600181600116156101000203166002900480601f01602080910402602001604051908101604052809291908181526020018280546001816001161561010002031660029004801561152c5780601f106115015761010080835404028352916020019161152c565b820191906000526020600020905b81548152906001019060200180831161150f57829003601f168201915b50505050508152602001600d8201600380602002604051908101604052809291908260038015611571576020028201915b81548152602001906001019080831161155d575b5050505050815260200160108201548152602001601182018054600181600116156101000203166002900480601f01602080910402602001604051908101604052809291908181526020018280546001816001161561010002031660029004801561161d5780601f106115f25761010080835404028352916020019161161d565b820191906000526020600020905b81548152906001019060200180831161160057829003601f168201915b505050505081525050905088888080601f0160208091040260200160405190810160405280939291908181526020018383808284378201915050505050508160e0018190525086868080601f01602080910402602001604051908101604052809392919081815260200183838082843782019150505050505081610100018190525084848080601f01602080910402602001604051908101604052809392919081815260200183838082843782019150505050505081610120018190525082828080601f016020809104026020016040519081016040528093929190818152602001838380828437820191505050505050816101400181905250611721818b6140f5565b50505050505050505050565b61173561428b565b600560009054906101000a900473ffffffffffffffffffffffffffffffffffffffff1673ffffffffffffffffffffffffffffffffffffffff163373ffffffffffffffffffffffffffffffffffffffff16141515611820576040517f08c379a000000000000000000000000000000000000000000000000000000000815260040180806020018281038252602f8152602001807f596f7520617265206e6f7420726567697374657265642061732061206365727481526020017f6966696e6720617574686f72697479000000000000000000000000000000000081525060400191505060405180910390fd5b6000808781526020019081526020016000206101c060405190810160405290816000820154815260200160018201548152602001600282018054600181600116156101000203166002900480601f0160208091040260200160405190810160405280929190818152602001828054600181600116156101000203166002900480156118ec5780601f106118c1576101008083540402835291602001916118ec565b820191906000526020600020905b8154815290600101906020018083116118cf57829003601f168201915b50505050508152602001600382018054600181600116156101000203166002900480601f01602080910402602001604051908101604052809291908181526020018280546001816001161561010002031660029004801561198e5780601f106119635761010080835404028352916020019161198e565b820191906000526020600020905b81548152906001019060200180831161197157829003601f168201915b50505050508152602001600482016003806020026040519081016040528092919082600380156119d3576020028201915b8154815260200190600101908083116119bf575b50505050508152602001600782018054600181600116156101000203166002900480601f016020809104026020016040519081016040528092919081815260200182805460018160011615610100020316600290048015611a755780601f10611a4a57610100808354040283529160200191611a75565b820191906000526020600020905b815481529060010190602001808311611a5857829003601f168201915b50505050508152602001600882018054600181600116156101000203166002900480601f016020809104026020016040519081016040528092919081815260200182805460018160011615610100020316600290048015611b175780601f10611aec57610100808354040283529160200191611b17565b820191906000526020600020905b815481529060010190602001808311611afa57829003601f168201915b50505050508152602001600982018054600181600116156101000203166002900480601f016020809104026020016040519081016040528092919081815260200182805460018160011615610100020316600290048015611bb95780601f10611b8e57610100808354040283529160200191611bb9565b820191906000526020600020905b815481529060010190602001808311611b9c57829003601f168201915b50505050508152602001600a82018054600181600116156101000203166002900480601f016020809104026020016040519081016040528092919081815260200182805460018160011615610100020316600290048015611c5b5780601f10611c3057610100808354040283529160200191611c5b565b820191906000526020600020905b815481529060010190602001808311611c3e57829003601f168201915b50505050508152602001600b82018054600181600116156101000203166002900480601f016020809104026020016040519081016040528092919081815260200182805460018160011615610100020316600290048015611cfd5780601f10611cd257610100808354040283529160200191611cfd565b820191906000526020600020905b815481529060010190602001808311611ce057829003601f168201915b50505050508152602001600c82018054600181600116156101000203166002900480601f016020809104026020016040519081016040528092919081815260200182805460018160011615610100020316600290048015611d9f5780601f10611d7457610100808354040283529160200191611d9f565b820191906000526020600020905b815481529060010190602001808311611d8257829003601f168201915b50505050508152602001600d8201600380602002604051908101604052809291908260038015611de4576020028201915b815481526020019060010190808311611dd0575b5050505050815260200160108201548152602001601182018054600181600116156101000203166002900480601f016020809104026020016040519081016040528092919081815260200182805460018160011615610100020316600290048015611e905780601f10611e6557610100808354040283529160200191611e90565b820191906000526020600020905b815481529060010190602001808311611e7357829003601f168201915b50505050508152505090508460038060200260405190810160405280929190826003602002808284378201915050505050816101600181905250838161018001818152505082828080601f016020809104026020016040519081016040528093929190818152602001838380828437820191505050505050816101a00181905250611f1b81876140f5565b505050505050565b600080600080848152602001908152602001600020600001541415611f4b5760009050611f50565b600190505b919050565b606080606080611f6361428b565b6000808781526020019081526020016000206101c060405190810160405290816000820154815260200160018201548152602001600282018054600181600116156101000203166002900480601f01602080910402602001604051908101604052809291908181526020018280546001816001161561010002031660029004801561202f5780601f106120045761010080835404028352916020019161202f565b820191906000526020600020905b81548152906001019060200180831161201257829003601f168201915b50505050508152602001600382018054600181600116156101000203166002900480601f0160208091040260200160405190810160405280929190818152602001828054600181600116156101000203166002900480156120d15780601f106120a6576101008083540402835291602001916120d1565b820191906000526020600020905b8154815290600101906020018083116120b457829003601f168201915b5050505050815260200160048201600380602002604051908101604052809291908260038015612116576020028201915b815481526020019060010190808311612102575b50505050508152602001600782018054600181600116156101000203166002900480601f0160208091040260200160405190810160405280929190818152602001828054600181600116156101000203166002900480156121b85780601f1061218d576101008083540402835291602001916121b8565b820191906000526020600020905b81548152906001019060200180831161219b57829003601f168201915b50505050508152602001600882018054600181600116156101000203166002900480601f01602080910402602001604051908101604052809291908181526020018280546001816001161561010002031660029004801561225a5780601f1061222f5761010080835404028352916020019161225a565b820191906000526020600020905b81548152906001019060200180831161223d57829003601f168201915b50505050508152602001600982018054600181600116156101000203166002900480601f0160208091040260200160405190810160405280929190818152602001828054600181600116156101000203166002900480156122fc5780601f106122d1576101008083540402835291602001916122fc565b820191906000526020600020905b8154815290600101906020018083116122df57829003601f168201915b50505050508152602001600a82018054600181600116156101000203166002900480601f01602080910402602001604051908101604052809291908181526020018280546001816001161561010002031660029004801561239e5780601f106123735761010080835404028352916020019161239e565b820191906000526020600020905b81548152906001019060200180831161238157829003601f168201915b50505050508152602001600b82018054600181600116156101000203166002900480601f0160208091040260200160405190810160405280929190818152602001828054600181600116156101000203166002900480156124405780601f1061241557610100808354040283529160200191612440565b820191906000526020600020905b81548152906001019060200180831161242357829003601f168201915b50505050508152602001600c82018054600181600116156101000203166002900480601f0160208091040260200160405190810160405280929190818152602001828054600181600116156101000203166002900480156124e25780601f106124b7576101008083540402835291602001916124e2565b820191906000526020600020905b8154815290600101906020018083116124c557829003601f168201915b50505050508152602001600d8201600380602002604051908101604052809291908260038015612527576020028201915b815481526020019060010190808311612513575b5050505050815260200160108201548152602001601182018054600181600116156101000203166002900480601f0160208091040260200160405190810160405280929190818152602001828054600181600116156101000203166002900480156125d35780601f106125a8576101008083540402835291602001916125d3565b820191906000526020600020905b8154815290600101906020018083116125b657829003601f168201915b50505050508152505090508060e001518161010001518261012001518361014001518393508292508191508090509450945094509450509193509193565b60006060600061261f61428b565b6000808681526020019081526020016000206101c060405190810160405290816000820154815260200160018201548152602001600282018054600181600116156101000203166002900480601f0160208091040260200160405190810160405280929190818152602001828054600181600116156101000203166002900480156126eb5780601f106126c0576101008083540402835291602001916126eb565b820191906000526020600020905b8154815290600101906020018083116126ce57829003601f168201915b50505050508152602001600382018054600181600116156101000203166002900480601f01602080910402602001604051908101604052809291908181526020018280546001816001161561010002031660029004801561278d5780601f106127625761010080835404028352916020019161278d565b820191906000526020600020905b81548152906001019060200180831161277057829003601f168201915b50505050508152602001600482016003806020026040519081016040528092919082600380156127d2576020028201915b8154815260200190600101908083116127be575b50505050508152602001600782018054600181600116156101000203166002900480601f0160208091040260200160405190810160405280929190818152602001828054600181600116156101000203166002900480156128745780601f1061284957610100808354040283529160200191612874565b820191906000526020600020905b81548152906001019060200180831161285757829003601f168201915b50505050508152602001600882018054600181600116156101000203166002900480601f0160208091040260200160405190810160405280929190818152602001828054600181600116156101000203166002900480156129165780601f106128eb57610100808354040283529160200191612916565b820191906000526020600020905b8154815290600101906020018083116128f957829003601f168201915b50505050508152602001600982018054600181600116156101000203166002900480601f0160208091040260200160405190810160405280929190818152602001828054600181600116156101000203166002900480156129b85780601f1061298d576101008083540402835291602001916129b8565b820191906000526020600020905b81548152906001019060200180831161299b57829003601f168201915b50505050508152602001600a82018054600181600116156101000203166002900480601f016020809104026020016040519081016040528092919081815260200182805460018160011615610100020316600290048015612a5a5780601f10612a2f57610100808354040283529160200191612a5a565b820191906000526020600020905b815481529060010190602001808311612a3d57829003601f168201915b50505050508152602001600b82018054600181600116156101000203166002900480601f016020809104026020016040519081016040528092919081815260200182805460018160011615610100020316600290048015612afc5780601f10612ad157610100808354040283529160200191612afc565b820191906000526020600020905b815481529060010190602001808311612adf57829003601f168201915b50505050508152602001600c82018054600181600116156101000203166002900480601f016020809104026020016040519081016040528092919081815260200182805460018160011615610100020316600290048015612b9e5780601f10612b7357610100808354040283529160200191612b9e565b820191906000526020600020905b815481529060010190602001808311612b8157829003601f168201915b50505050508152602001600d8201600380602002604051908101604052809291908260038015612be3576020028201915b815481526020019060010190808311612bcf575b5050505050815260200160108201548152602001601182018054600181600116156101000203166002900480601f016020809104026020016040519081016040528092919081815260200182805460018160011615610100020316600290048015612c8f5780601f10612c6457610100808354040283529160200191612c8f565b820191906000526020600020905b815481529060010190602001808311612c7257829003601f168201915b5050505050815250509050806020015181604001518260000151819150935093509350509193909250565b612cc2614268565b60006060612cce61428b565b6000808681526020019081526020016000206101c060405190810160405290816000820154815260200160018201548152602001600282018054600181600116156101000203166002900480601f016020809104026020016040519081016040528092919081815260200182805460018160011615610100020316600290048015612d9a5780601f10612d6f57610100808354040283529160200191612d9a565b820191906000526020600020905b815481529060010190602001808311612d7d57829003601f168201915b50505050508152602001600382018054600181600116156101000203166002900480601f016020809104026020016040519081016040528092919081815260200182805460018160011615610100020316600290048015612e3c5780601f10612e1157610100808354040283529160200191612e3c565b820191906000526020600020905b815481529060010190602001808311612e1f57829003601f168201915b5050505050815260200160048201600380602002604051908101604052809291908260038015612e81576020028201915b815481526020019060010190808311612e6d575b50505050508152602001600782018054600181600116156101000203166002900480601f016020809104026020016040519081016040528092919081815260200182805460018160011615610100020316600290048015612f235780601f10612ef857610100808354040283529160200191612f23565b820191906000526020600020905b815481529060010190602001808311612f0657829003601f168201915b50505050508152602001600882018054600181600116156101000203166002900480601f016020809104026020016040519081016040528092919081815260200182805460018160011615610100020316600290048015612fc55780601f10612f9a57610100808354040283529160200191612fc5565b820191906000526020600020905b815481529060010190602001808311612fa857829003601f168201915b50505050508152602001600982018054600181600116156101000203166002900480601f0160208091040260200160405190810160405280929190818152602001828054600181600116156101000203166002900480156130675780601f1061303c57610100808354040283529160200191613067565b820191906000526020600020905b81548152906001019060200180831161304a57829003601f168201915b50505050508152602001600a82018054600181600116156101000203166002900480601f0160208091040260200160405190810160405280929190818152602001828054600181600116156101000203166002900480156131095780601f106130de57610100808354040283529160200191613109565b820191906000526020600020905b8154815290600101906020018083116130ec57829003601f168201915b50505050508152602001600b82018054600181600116156101000203166002900480601f0160208091040260200160405190810160405280929190818152602001828054600181600116156101000203166002900480156131ab5780601f10613180576101008083540402835291602001916131ab565b820191906000526020600020905b81548152906001019060200180831161318e57829003601f168201915b50505050508152602001600c82018054600181600116156101000203166002900480601f01602080910402602001604051908101604052809291908181526020018280546001816001161561010002031660029004801561324d5780601f106132225761010080835404028352916020019161324d565b820191906000526020600020905b81548152906001019060200180831161323057829003601f168201915b50505050508152602001600d8201600380602002604051908101604052809291908260038015613292576020028201915b81548152602001906001019080831161327e575b5050505050815260200160108201548152602001601182018054600181600116156101000203166002900480601f01602080910402602001604051908101604052809291908181526020018280546001816001161561010002031660029004801561333e5780601f106133135761010080835404028352916020019161333e565b820191906000526020600020905b81548152906001019060200180831161332157829003601f168201915b5050505050815250509050806101600151816101800151826101a00151829250809050935093509350509193909250565b600260009054906101000a900473ffffffffffffffffffffffffffffffffffffffff1673ffffffffffffffffffffffffffffffffffffffff163373ffffffffffffffffffffffffffffffffffffffff16141515613434576040517f08c379a00000000000000000000000000000000000000000000000000000000081526004018080602001828103825260148152602001807f596f7520617265206e6f742061204d696e6e657200000000000000000000000081525060200191505060405180910390fd5b64ee6820ff2f6001819055506101c0604051908101604052806107e0815260200161534381526020016040805190810160405280600581526020017f436f6e676f00000000000000000000000000000000000000000000000000000081525081526020016040805190810160405280600c81526020017f536f7574682041667269636100000000000000000000000000000000000000008152508152602001606060405190810160405280600c815260200160168152602001600a81525081526020016040805190810160405280600a81526020017f45787472612046696e650000000000000000000000000000000000000000000081525081526020016040805190810160405280600481526020017f46696e650000000000000000000000000000000000000000000000000000000081525081526020016040805190810160405280600781526020017f4765726d616e790000000000000000000000000000000000000000000000000081525081526020016040805190810160405280600c81526020017f4465426565727320496e632e000000000000000000000000000000000000000081525081526020016040805190810160405280600e81526020017f576869746520476f6c642032346b00000000000000000000000000000000000081525081526020016040805190810160405280600481526020017f52696e67000000000000000000000000000000000000000000000000000000008152508152602001606060405190810160405280600a8152602001600b8152602001600f815250815260200161044381526020016040805190810160405280600a81526020017f45787472612046696e6500000000000000000000000000000000000000000000815250815250600080600154815260200190815260200160002060008201518160000155602082015181600101556040820151816002019080519060200190613702929190614307565b50606082015181600301908051906020019061371f929190614307565b50608082015181600401906003613737929190614387565b5060a0820151816007019080519060200190613754929190614307565b5060c0820151816008019080519060200190613771929190614307565b5060e082015181600901908051906020019061378e929190614307565b5061010082015181600a0190805190602001906137ac929190614307565b5061012082015181600b0190805190602001906137ca929190614307565b5061014082015181600c0190805190602001906137e8929190614307565b5061016082015181600d01906003613801929190614387565b5061018082015181601001556101a082015181601101908051906020019061382a929190614307565b50905050836000806001548152602001908152602001600020600001819055508282600080600154815260200190815260200160002060020191906138709291906143c7565b508060008060015481526020019081526020016000206001018190555050505050565b61389b61428b565b600360009054906101000a900473ffffffffffffffffffffffffffffffffffffffff1673ffffffffffffffffffffffffffffffffffffffff163373ffffffffffffffffffffffffffffffffffffffff16141515613986576040517f08c379a000000000000000000000000000000000000000000000000000000000815260040180806020018281038252602d8152602001807f596f7520617265206e6f7420726567697374657265642061732061206375747481526020017f696e6720617574686f726974790000000000000000000000000000000000000081525060400191505060405180910390fd5b6000808a81526020019081526020016000206101c060405190810160405290816000820154815260200160018201548152602001600282018054600181600116156101000203166002900480601f016020809104026020016040519081016040528092919081815260200182805460018160011615610100020316600290048015613a525780601f10613a2757610100808354040283529160200191613a52565b820191906000526020600020905b815481529060010190602001808311613a3557829003601f168201915b50505050508152602001600382018054600181600116156101000203166002900480601f016020809104026020016040519081016040528092919081815260200182805460018160011615610100020316600290048015613af45780601f10613ac957610100808354040283529160200191613af4565b820191906000526020600020905b815481529060010190602001808311613ad757829003601f168201915b5050505050815260200160048201600380602002604051908101604052809291908260038015613b39576020028201915b815481526020019060010190808311613b25575b50505050508152602001600782018054600181600116156101000203166002900480601f016020809104026020016040519081016040528092919081815260200182805460018160011615610100020316600290048015613bdb5780601f10613bb057610100808354040283529160200191613bdb565b820191906000526020600020905b815481529060010190602001808311613bbe57829003601f168201915b50505050508152602001600882018054600181600116156101000203166002900480601f016020809104026020016040519081016040528092919081815260200182805460018160011615610100020316600290048015613c7d5780601f10613c5257610100808354040283529160200191613c7d565b820191906000526020600020905b815481529060010190602001808311613c6057829003601f168201915b50505050508152602001600982018054600181600116156101000203166002900480601f016020809104026020016040519081016040528092919081815260200182805460018160011615610100020316600290048015613d1f5780601f10613cf457610100808354040283529160200191613d1f565b820191906000526020600020905b815481529060010190602001808311613d0257829003601f168201915b50505050508152602001600a82018054600181600116156101000203166002900480601f016020809104026020016040519081016040528092919081815260200182805460018160011615610100020316600290048015613dc15780601f10613d9657610100808354040283529160200191613dc1565b820191906000526020600020905b815481529060010190602001808311613da457829003601f168201915b50505050508152602001600b82018054600181600116156101000203166002900480601f016020809104026020016040519081016040528092919081815260200182805460018160011615610100020316600290048015613e635780601f10613e3857610100808354040283529160200191613e63565b820191906000526020600020905b815481529060010190602001808311613e4657829003601f168201915b50505050508152602001600c82018054600181600116156101000203166002900480601f016020809104026020016040519081016040528092919081815260200182805460018160011615610100020316600290048015613f055780601f10613eda57610100808354040283529160200191613f05565b820191906000526020600020905b815481529060010190602001808311613ee857829003601f168201915b50505050508152602001600d8201600380602002604051908101604052809291908260038015613f4a576020028201915b815481526020019060010190808311613f36575b5050505050815260200160108201548152602001601182018054600181600116156101000203166002900480601f016020809104026020016040519081016040528092919081815260200182805460018160011615610100020316600290048015613ff65780601f10613fcb57610100808354040283529160200191613ff6565b820191906000526020600020905b815481529060010190602001808311613fd957829003601f168201915b505050505081525050905087878080601f016020809104026020016040519081016040528093929190818152602001838380828437820191505050505050816060018190525085858080601f0160208091040260200160405190810160405280939291908181526020018383808284378201915050505050508160a0018190525083838080601f0160208091040260200160405190810160405280939291908181526020018383808284378201915050505050508160c00181905250816003806020026040519081016040528092919082600360200280828437820191505050505081608001819052506140ea818a6140f5565b505050505050505050565b8160008083815260200190815260200160002060008201518160000155602082015181600101556040820151816002019080519060200190614138929190614307565b506060820151816003019080519060200190614155929190614307565b5060808201518160040190600361416d929190614387565b5060a082015181600701908051906020019061418a929190614307565b5060c08201518160080190805190602001906141a7929190614307565b5060e08201518160090190805190602001906141c4929190614307565b5061010082015181600a0190805190602001906141e2929190614307565b5061012082015181600b019080519060200190614200929190614307565b5061014082015181600c01908051906020019061421e929190614307565b5061016082015181600d01906003614237929190614387565b5061018082015181601001556101a0820151816011019080519060200190614260929190614307565b509050505050565b606060405190810160405280600390602082028038833980820191505090505090565b61024060405190810160405280600081526020016000815260200160608152602001606081526020016142bc614447565b81526020016060815260200160608152602001606081526020016060815260200160608152602001606081526020016142f3614447565b815260200160008152602001606081525090565b828054600181600116156101000203166002900490600052602060002090601f016020900481019282601f1061434857805160ff1916838001178555614376565b82800160010185558215614376579182015b8281111561437557825182559160200191906001019061435a565b5b509050614383919061446a565b5090565b82600381019282156143b6579160200282015b828111156143b557825182559160200191906001019061439a565b5b5090506143c3919061446a565b5090565b828054600181600116156101000203166002900490600052602060002090601f016020900481019282601f1061440857803560ff1916838001178555614436565b82800160010185558215614436579182015b8281111561443557823582559160200191906001019061441a565b5b509050614443919061446a565b5090565b606060405190810160405280600390602082028038833980820191505090505090565b61448c91905b80821115614488576000816000905550600101614470565b5090565b905600a165627a7a72305820ac5116d734c3c66f6c50183d158b5a421f41656591772f693fb447c2555773470029",
  "source": "pragma solidity^0.4.24;\ncontract DiaMonde{\nstruct Diamondedb{\n//mine\nuint256 mine_date;\nuint256 raw_weight;//56.00\nstring mine_loc;\n//Cutting & Polish\nstring cut_factoryloc;\nuint256[3] cut_mesurements;//[15,15,15] mm\nstring cut_grade;\nstring polish_grade;\n//Manufacture\nstring man_loc;\nstring comp_name;\nstring material;\nstring product;\n//Certificate\nuint256[3] cer_measurements;\nuint256 cer_weight;\nstring cer_grade;\n\n}\nmapping(uint256 => Diamondedb)diamonds;\nuint256 public hash;\n\naddress private minner = 0x7C2C6d9F404bb083a154cc7Da19974668153c85f;//Acc1\naddress private cutter = 0xaA71B4177E9d00bc15d2E50071d98740cd25Ccf5;//Acc2\naddress private manufacturer = 0x3e1AbE71Fa0E35EF167544BB51bC3C281BFA89F3;//Acc4\naddress private certifier = 0x22eF52207C832aB7bBc50dFBcfC1a1C75742Da0F;//Acc5\nfunction isRegistered(uint256 _hash)external view returns(bool){\n  if(diamonds[_hash].mine_date==0){\n    return (false);\n  }else{\n    return (true);\n  }\n}\n\nfunction mine(uint256 _mine_date,string _mine_loc,uint256 _raw_weight)external{\nrequire(msg.sender==minner, \"You are not a Minner\");\nhash = 1023949209391;\ndiamonds[hash] = Diamondedb(2016,21315,'Congo','South Africa',[uint256(12),uint256(22),uint256(10)],'Extra Fine','Fine','Germany','DeBeers Inc.','White Gold 24k','Ring',[uint256(10),uint256(11),uint256(15)],1091,'Extra Fine');\ndiamonds[hash].mine_date=_mine_date;\ndiamonds[hash].mine_loc=_mine_loc;\ndiamonds[hash].raw_weight=_raw_weight;\n}\n\nfunction cut(uint256 _hash,string _cut_factoryloc,string _cut_grade,string _polish_grade,uint256[3] _cut_mesurements)external {\nrequire(msg.sender==cutter, \"You are not registered as a cutting authority\");\nDiamondedb memory u = diamonds[_hash];\nu.cut_factoryloc=_cut_factoryloc;\nu.cut_grade=_cut_grade;\nu.polish_grade=_polish_grade;\nu.cut_mesurements=_cut_mesurements;\nstore(u,_hash);\n}\nfunction manufacture(uint256 _hash,string _man_loc,string _comp_name,string _material,string _product)external {\nrequire(msg.sender==manufacturer, \"You are not registered as a sorting authority\");\nDiamondedb memory u = diamonds[_hash];\nu.man_loc=_man_loc;\nu.comp_name=_comp_name;\nu.material=_material;\nu.product=_product;\nstore(u,_hash);\n}\nfunction certificate(uint256 _hash, uint256[3] _cer_measurements,uint256 _cer_weight,  string _cer_grade)external {\nrequire(msg.sender==certifier, \"You are not registered as a certifing authority\");\nDiamondedb memory u =diamonds[_hash];\nu.cer_measurements=_cer_measurements;\nu.cer_weight=_cer_weight;\nu.cer_grade=_cer_grade;\nstore(u,_hash);\n}\nfunction store(Diamondedb _x,uint256 _hash)private{\n    diamonds[_hash]=_x;\n}\n\nfunction getmine(uint256 _hash)external view returns(\nuint256 raw_weight,\nstring mine_loc,\nuint256 mine_date\n){\nDiamondedb memory u=diamonds[_hash];\nreturn(\nu.raw_weight,\nu.mine_loc,\nu.mine_date);\n}\n\nfunction getcut(uint256 _hash)external view returns(\nstring cut_factoryloc,\nuint256[3] cut_mesurements,\nstring cut_grade,\nstring polish_grade\n){\n  Diamondedb memory u=diamonds[_hash];\n  return(\n  u.cut_factoryloc,\n  u.cut_mesurements,\n  u.cut_grade,\n  u.polish_grade);\n}\n\n\nfunction getmanufacture(uint256 _hash)external view returns(\n\nstring man_loc,\nstring comp_name,\nstring material,\nstring product){\n  Diamondedb memory u=diamonds[_hash];\n  return(\n  u.man_loc,\n  u.comp_name,\n  u.material,\n  u.product);\n}\nfunction getcer(uint256 _hash)external view returns(\n  uint256[3] cer_measurements,\n  uint256 cer_weight,\n  string cer_grade\n\n){\n  Diamondedb memory u=diamonds[_hash];\n  return(\n    u.cer_measurements,\n    u.cer_weight,\n    u.cer_grade\n  );\n}\n}\n",
  "sourcePath": "/Users/jefferson.ding/Desktop/Git Repo/BLG-Hackathon/DiaMonde/contracts/DiaMonde.sol",
  "compiler": {
    "name": "solc",
    "version": "0.4.24+commit.e67f0147.Emscripten.clang"
  },
  "schemaVersion": "3.0.23",
  "updatedAt": "2020-02-11T17:33:17.527Z",
  "devdoc": {
    "methods": {}
  },
  "userdoc": {
    "methods": {}
  }
}