{
  "contractName": "DiaMonde",
  "abi": [
    {
      "constant": true,
      "inputs": [
        {
          "name": "_hash",
          "type": "bytes32"
        }
      ],
      "name": "isRegistered",
      "outputs": [
        {
          "name": "",
          "type": "bool"
        },
        {
          "name": "",
          "type": "bytes32"
        }
      ],
      "payable": false,
      "stateMutability": "view",
      "type": "function"
    },
    {
      "constant": false,
      "inputs": [
        {
          "name": "_mine_date",
          "type": "uint256"
        },
        {
          "name": "_mine_loc",
          "type": "string"
        },
        {
          "name": "_raw_weight",
          "type": "uint256"
        }
      ],
      "name": "mine",
      "outputs": [
        {
          "name": "",
          "type": "bytes32"
        }
      ],
      "payable": false,
      "stateMutability": "nonpayable",
      "type": "function"
    },
    {
      "constant": false,
      "inputs": [
        {
          "name": "_hash",
          "type": "bytes32"
        },
        {
          "name": "_cut_factoryloc",
          "type": "string"
        },
        {
          "name": "_cut_grade",
          "type": "string"
        },
        {
          "name": "_polish_grade",
          "type": "string"
        },
        {
          "name": "_cut_mesurements",
          "type": "uint256[3]"
        }
      ],
      "name": "cut",
      "outputs": [],
      "payable": false,
      "stateMutability": "nonpayable",
      "type": "function"
    },
    {
      "constant": false,
      "inputs": [
        {
          "name": "_hash",
          "type": "bytes32"
        },
        {
          "name": "_man_loc",
          "type": "string"
        },
        {
          "name": "_comp_name",
          "type": "string"
        },
        {
          "name": "_material",
          "type": "string"
        },
        {
          "name": "_product",
          "type": "string"
        }
      ],
      "name": "manufacture",
      "outputs": [],
      "payable": false,
      "stateMutability": "nonpayable",
      "type": "function"
    },
    {
      "constant": false,
      "inputs": [
        {
          "name": "_hash",
          "type": "bytes32"
        },
        {
          "name": "_cer_measurements",
          "type": "uint256[3]"
        },
        {
          "name": "_cer_weight",
          "type": "uint256"
        },
        {
          "name": "_cer_grade",
          "type": "string"
        }
      ],
      "name": "certificate",
      "outputs": [],
      "payable": false,
      "stateMutability": "nonpayable",
      "type": "function"
    },
    {
      "constant": true,
      "inputs": [
        {
          "name": "_hash",
          "type": "bytes32"
        }
      ],
      "name": "getmine",
      "outputs": [
        {
          "name": "raw_weight",
          "type": "uint256"
        },
        {
          "name": "mine_loc",
          "type": "string"
        }
      ],
      "payable": false,
      "stateMutability": "view",
      "type": "function"
    },
    {
      "constant": true,
      "inputs": [
        {
          "name": "_hash",
          "type": "bytes32"
        }
      ],
      "name": "getcut",
      "outputs": [
        {
          "name": "cut_factoryloc",
          "type": "string"
        },
        {
          "name": "cut_mesurements",
          "type": "uint256[3]"
        },
        {
          "name": "cut_grade",
          "type": "string"
        },
        {
          "name": "polish_grade",
          "type": "string"
        }
      ],
      "payable": false,
      "stateMutability": "view",
      "type": "function"
    },
    {
      "constant": true,
      "inputs": [
        {
          "name": "_hash",
          "type": "bytes32"
        }
      ],
      "name": "getmanufacture",
      "outputs": [
        {
          "name": "man_loc",
          "type": "string"
        },
        {
          "name": "comp_name",
          "type": "string"
        },
        {
          "name": "material",
          "type": "string"
        },
        {
          "name": "product",
          "type": "string"
        }
      ],
      "payable": false,
      "stateMutability": "view",
      "type": "function"
    },
    {
      "constant": true,
      "inputs": [
        {
          "name": "_hash",
          "type": "bytes32"
        }
      ],
      "name": "getcer",
      "outputs": [
        {
          "name": "cer_measurements",
          "type": "uint256[3]"
        },
        {
          "name": "cer_weight",
          "type": "uint256"
        },
        {
          "name": "cer_grade",
          "type": "string"
        }
      ],
      "payable": false,
      "stateMutability": "view",
      "type": "function"
    }
  ],
  "bytecode": "0x6080604052737c2c6d9f404bb083a154cc7da19974668153c85f600160006101000a81548173ffffffffffffffffffffffffffffffffffffffff021916908373ffffffffffffffffffffffffffffffffffffffff16021790555073aa71b4177e9d00bc15d2e50071d98740cd25ccf5600260006101000a81548173ffffffffffffffffffffffffffffffffffffffff021916908373ffffffffffffffffffffffffffffffffffffffff160217905550733e1abe71fa0e35ef167544bb51bc3c281bfa89f3600360006101000a81548173ffffffffffffffffffffffffffffffffffffffff021916908373ffffffffffffffffffffffffffffffffffffffff1602179055507322ef52207c832ab7bbc50dfbcfc1a1c75742da0f600460006101000a81548173ffffffffffffffffffffffffffffffffffffffff021916908373ffffffffffffffffffffffffffffffffffffffff16021790555034801561016457600080fd5b506144ba806101746000396000f300608060405260043610610099576000357c0100000000000000000000000000000000000000000000000000000000900463ffffffff1680630e115d2d1461009e57806327258b221461024f5780632c487301146102a75780632c5a726f14610304578063474d879f146104f257806373d76c0f146105755780637b3e0034146106265780639035ff2d146106b7578063e84dfecc14610797575b600080fd5b3480156100aa57600080fd5b506100cd6004803603810190808035600019169060200190929190505050610802565b604051808060200185600360200280838360005b838110156100fc5780820151818401526020810190506100e1565b505050509050018060200180602001848103845288818151815260200191508051906020019080838360005b83811015610143578082015181840152602081019050610128565b50505050905090810190601f1680156101705780820380516001836020036101000a031916815260200191505b50848103835286818151815260200191508051906020019080838360005b838110156101a957808201518184015260208101905061018e565b50505050905090810190601f1680156101d65780820380516001836020036101000a031916815260200191505b50848103825285818151815260200191508051906020019080838360005b8381101561020f5780820151818401526020810190506101f4565b50505050905090810190601f16801561023c5780820380516001836020036101000a031916815260200191505b5097505050505050505060405180910390f35b34801561025b57600080fd5b5061027e6004803603810190808035600019169060200190929190505050610eca565b604051808315151515815260200182600019166000191681526020019250505060405180910390f35b3480156102b357600080fd5b5061030260048036038101908080356000191690602001909291908060600190919291929080359060200190929190803590602001908201803590602001919091929391929390505050610f0c565b005b34801561031057600080fd5b50610333600480360381019080803560001916906020019092919050505061170a565b6040518080602001806020018060200180602001858103855289818151815260200191508051906020019080838360005b8381101561037f578082015181840152602081019050610364565b50505050905090810190601f1680156103ac5780820380516001836020036101000a031916815260200191505b50858103845288818151815260200191508051906020019080838360005b838110156103e55780820151818401526020810190506103ca565b50505050905090810190601f1680156104125780820380516001836020036101000a031916815260200191505b50858103835287818151815260200191508051906020019080838360005b8381101561044b578082015181840152602081019050610430565b50505050905090810190601f1680156104785780820380516001836020036101000a031916815260200191505b50858103825286818151815260200191508051906020019080838360005b838110156104b1578082015181840152602081019050610496565b50505050905090810190601f1680156104de5780820380516001836020036101000a031916815260200191505b509850505050505050505060405180910390f35b3480156104fe57600080fd5b50610573600480360381019080803560001916906020019092919080359060200190820180359060200191909192939192939080359060200190820180359060200191909192939192939080359060200190820180359060200191909192939192939080606001909192919290505050611dce565b005b34801561058157600080fd5b506105a46004803603810190808035600019169060200190929190505050612638565b6040518083815260200180602001828103825283818151815260200191508051906020019080838360005b838110156105ea5780820151818401526020810190506105cf565b50505050905090810190601f1680156106175780820380516001836020036101000a031916815260200191505b50935050505060405180910390f35b34801561063257600080fd5b506106b56004803603810190808035600019169060200190929190803590602001908201803590602001919091929391929390803590602001908201803590602001919091929391929390803590602001908201803590602001919091929391929390803590602001908201803590602001919091929391929390505050612cde565b005b3480156106c357600080fd5b506106e66004803603810190808035600019169060200190929190505050613559565b6040518084600360200280838360005b838110156107115780820151818401526020810190506106f6565b5050505090500183815260200180602001828103825283818151815260200191508051906020019080838360005b8381101561075a57808201518184015260208101905061073f565b50505050905090810190601f1680156107875780820380516001836020036101000a031916815260200191505b5094505050505060405180910390f35b3480156107a357600080fd5b506107e46004803603810190808035906020019092919080359060200190820180359060200191909192939192939080359060200190929190505050613c16565b60405180826000191660001916815260200191505060405180910390f35b606061080c614267565b60608061081761428a565b60008087600019166000191681526020019081526020016000206101c060405190810160405290816000820154815260200160018201548152602001600282018054600181600116156101000203166002900480601f0160208091040260200160405190810160405280929190818152602001828054600181600116156101000203166002900480156108eb5780601f106108c0576101008083540402835291602001916108eb565b820191906000526020600020905b8154815290600101906020018083116108ce57829003601f168201915b50505050508152602001600382018054600181600116156101000203166002900480601f01602080910402602001604051908101604052809291908181526020018280546001816001161561010002031660029004801561098d5780601f106109625761010080835404028352916020019161098d565b820191906000526020600020905b81548152906001019060200180831161097057829003601f168201915b50505050508152602001600482016003806020026040519081016040528092919082600380156109d2576020028201915b8154815260200190600101908083116109be575b50505050508152602001600782018054600181600116156101000203166002900480601f016020809104026020016040519081016040528092919081815260200182805460018160011615610100020316600290048015610a745780601f10610a4957610100808354040283529160200191610a74565b820191906000526020600020905b815481529060010190602001808311610a5757829003601f168201915b50505050508152602001600882018054600181600116156101000203166002900480601f016020809104026020016040519081016040528092919081815260200182805460018160011615610100020316600290048015610b165780601f10610aeb57610100808354040283529160200191610b16565b820191906000526020600020905b815481529060010190602001808311610af957829003601f168201915b50505050508152602001600982018054600181600116156101000203166002900480601f016020809104026020016040519081016040528092919081815260200182805460018160011615610100020316600290048015610bb85780601f10610b8d57610100808354040283529160200191610bb8565b820191906000526020600020905b815481529060010190602001808311610b9b57829003601f168201915b50505050508152602001600a82018054600181600116156101000203166002900480601f016020809104026020016040519081016040528092919081815260200182805460018160011615610100020316600290048015610c5a5780601f10610c2f57610100808354040283529160200191610c5a565b820191906000526020600020905b815481529060010190602001808311610c3d57829003601f168201915b50505050508152602001600b82018054600181600116156101000203166002900480601f016020809104026020016040519081016040528092919081815260200182805460018160011615610100020316600290048015610cfc5780601f10610cd157610100808354040283529160200191610cfc565b820191906000526020600020905b815481529060010190602001808311610cdf57829003601f168201915b50505050508152602001600c82018054600181600116156101000203166002900480601f016020809104026020016040519081016040528092919081815260200182805460018160011615610100020316600290048015610d9e5780601f10610d7357610100808354040283529160200191610d9e565b820191906000526020600020905b815481529060010190602001808311610d8157829003601f168201915b50505050508152602001600d8201600380602002604051908101604052809291908260038015610de3576020028201915b815481526020019060010190808311610dcf575b5050505050815260200160108201548152602001601182018054600181600116156101000203166002900480601f016020809104026020016040519081016040528092919081815260200182805460018160011615610100020316600290048015610e8f5780601f10610e6457610100808354040283529160200191610e8f565b820191906000526020600020905b815481529060010190602001808311610e7257829003601f168201915b5050505050815250509050806060015181608001518260a001518360c001518393508292508191508090509450945094509450509193509193565b60008060008060008560001916600019168152602001908152602001600020600001541415610eff5760008091509150610f07565b600183915091505b915091565b610f1461428a565b600460009054906101000a900473ffffffffffffffffffffffffffffffffffffffff1673ffffffffffffffffffffffffffffffffffffffff163373ffffffffffffffffffffffffffffffffffffffff16141515610fff576040517f08c379a000000000000000000000000000000000000000000000000000000000815260040180806020018281038252602f8152602001807f596f7520617265206e6f7420726567697374657265642061732061206365727481526020017f6966696e6720617574686f72697479000000000000000000000000000000000081525060400191505060405180910390fd5b60008087600019166000191681526020019081526020016000206101c060405190810160405290816000820154815260200160018201548152602001600282018054600181600116156101000203166002900480601f0160208091040260200160405190810160405280929190818152602001828054600181600116156101000203166002900480156110d35780601f106110a8576101008083540402835291602001916110d3565b820191906000526020600020905b8154815290600101906020018083116110b657829003601f168201915b50505050508152602001600382018054600181600116156101000203166002900480601f0160208091040260200160405190810160405280929190818152602001828054600181600116156101000203166002900480156111755780601f1061114a57610100808354040283529160200191611175565b820191906000526020600020905b81548152906001019060200180831161115857829003601f168201915b50505050508152602001600482016003806020026040519081016040528092919082600380156111ba576020028201915b8154815260200190600101908083116111a6575b50505050508152602001600782018054600181600116156101000203166002900480601f01602080910402602001604051908101604052809291908181526020018280546001816001161561010002031660029004801561125c5780601f106112315761010080835404028352916020019161125c565b820191906000526020600020905b81548152906001019060200180831161123f57829003601f168201915b50505050508152602001600882018054600181600116156101000203166002900480601f0160208091040260200160405190810160405280929190818152602001828054600181600116156101000203166002900480156112fe5780601f106112d3576101008083540402835291602001916112fe565b820191906000526020600020905b8154815290600101906020018083116112e157829003601f168201915b50505050508152602001600982018054600181600116156101000203166002900480601f0160208091040260200160405190810160405280929190818152602001828054600181600116156101000203166002900480156113a05780601f10611375576101008083540402835291602001916113a0565b820191906000526020600020905b81548152906001019060200180831161138357829003601f168201915b50505050508152602001600a82018054600181600116156101000203166002900480601f0160208091040260200160405190810160405280929190818152602001828054600181600116156101000203166002900480156114425780601f1061141757610100808354040283529160200191611442565b820191906000526020600020905b81548152906001019060200180831161142557829003601f168201915b50505050508152602001600b82018054600181600116156101000203166002900480601f0160208091040260200160405190810160405280929190818152602001828054600181600116156101000203166002900480156114e45780601f106114b9576101008083540402835291602001916114e4565b820191906000526020600020905b8154815290600101906020018083116114c757829003601f168201915b50505050508152602001600c82018054600181600116156101000203166002900480601f0160208091040260200160405190810160405280929190818152602001828054600181600116156101000203166002900480156115865780601f1061155b57610100808354040283529160200191611586565b820191906000526020600020905b81548152906001019060200180831161156957829003601f168201915b50505050508152602001600d82016003806020026040519081016040528092919082600380156115cb576020028201915b8154815260200190600101908083116115b7575b5050505050815260200160108201548152602001601182018054600181600116156101000203166002900480601f0160208091040260200160405190810160405280929190818152602001828054600181600116156101000203166002900480156116775780601f1061164c57610100808354040283529160200191611677565b820191906000526020600020905b81548152906001019060200180831161165a57829003601f168201915b50505050508152505090508460038060200260405190810160405280929190826003602002808284378201915050505050816101600181905250838161018001818152505082828080601f016020809104026020016040519081016040528093929190818152602001838380828437820191505050505050816101a0018190525061170281876140ec565b505050505050565b60608060608061171861428a565b60008087600019166000191681526020019081526020016000206101c060405190810160405290816000820154815260200160018201548152602001600282018054600181600116156101000203166002900480601f0160208091040260200160405190810160405280929190818152602001828054600181600116156101000203166002900480156117ec5780601f106117c1576101008083540402835291602001916117ec565b820191906000526020600020905b8154815290600101906020018083116117cf57829003601f168201915b50505050508152602001600382018054600181600116156101000203166002900480601f01602080910402602001604051908101604052809291908181526020018280546001816001161561010002031660029004801561188e5780601f106118635761010080835404028352916020019161188e565b820191906000526020600020905b81548152906001019060200180831161187157829003601f168201915b50505050508152602001600482016003806020026040519081016040528092919082600380156118d3576020028201915b8154815260200190600101908083116118bf575b50505050508152602001600782018054600181600116156101000203166002900480601f0160208091040260200160405190810160405280929190818152602001828054600181600116156101000203166002900480156119755780601f1061194a57610100808354040283529160200191611975565b820191906000526020600020905b81548152906001019060200180831161195857829003601f168201915b50505050508152602001600882018054600181600116156101000203166002900480601f016020809104026020016040519081016040528092919081815260200182805460018160011615610100020316600290048015611a175780601f106119ec57610100808354040283529160200191611a17565b820191906000526020600020905b8154815290600101906020018083116119fa57829003601f168201915b50505050508152602001600982018054600181600116156101000203166002900480601f016020809104026020016040519081016040528092919081815260200182805460018160011615610100020316600290048015611ab95780601f10611a8e57610100808354040283529160200191611ab9565b820191906000526020600020905b815481529060010190602001808311611a9c57829003601f168201915b50505050508152602001600a82018054600181600116156101000203166002900480601f016020809104026020016040519081016040528092919081815260200182805460018160011615610100020316600290048015611b5b5780601f10611b3057610100808354040283529160200191611b5b565b820191906000526020600020905b815481529060010190602001808311611b3e57829003601f168201915b50505050508152602001600b82018054600181600116156101000203166002900480601f016020809104026020016040519081016040528092919081815260200182805460018160011615610100020316600290048015611bfd5780601f10611bd257610100808354040283529160200191611bfd565b820191906000526020600020905b815481529060010190602001808311611be057829003601f168201915b50505050508152602001600c82018054600181600116156101000203166002900480601f016020809104026020016040519081016040528092919081815260200182805460018160011615610100020316600290048015611c9f5780601f10611c7457610100808354040283529160200191611c9f565b820191906000526020600020905b815481529060010190602001808311611c8257829003601f168201915b50505050508152602001600d8201600380602002604051908101604052809291908260038015611ce4576020028201915b815481526020019060010190808311611cd0575b5050505050815260200160108201548152602001601182018054600181600116156101000203166002900480601f016020809104026020016040519081016040528092919081815260200182805460018160011615610100020316600290048015611d905780601f10611d6557610100808354040283529160200191611d90565b820191906000526020600020905b815481529060010190602001808311611d7357829003601f168201915b50505050508152505090508060e001518161010001518261012001518361014001518393508292508191508090509450945094509450509193509193565b611dd661428a565b600260009054906101000a900473ffffffffffffffffffffffffffffffffffffffff1673ffffffffffffffffffffffffffffffffffffffff163373ffffffffffffffffffffffffffffffffffffffff16141515611ec1576040517f08c379a000000000000000000000000000000000000000000000000000000000815260040180806020018281038252602d8152602001807f596f7520617265206e6f7420726567697374657265642061732061206375747481526020017f696e6720617574686f726974790000000000000000000000000000000000000081525060400191505060405180910390fd5b6000808a600019166000191681526020019081526020016000206101c060405190810160405290816000820154815260200160018201548152602001600282018054600181600116156101000203166002900480601f016020809104026020016040519081016040528092919081815260200182805460018160011615610100020316600290048015611f955780601f10611f6a57610100808354040283529160200191611f95565b820191906000526020600020905b815481529060010190602001808311611f7857829003601f168201915b50505050508152602001600382018054600181600116156101000203166002900480601f0160208091040260200160405190810160405280929190818152602001828054600181600116156101000203166002900480156120375780601f1061200c57610100808354040283529160200191612037565b820191906000526020600020905b81548152906001019060200180831161201a57829003601f168201915b505050505081526020016004820160038060200260405190810160405280929190826003801561207c576020028201915b815481526020019060010190808311612068575b50505050508152602001600782018054600181600116156101000203166002900480601f01602080910402602001604051908101604052809291908181526020018280546001816001161561010002031660029004801561211e5780601f106120f35761010080835404028352916020019161211e565b820191906000526020600020905b81548152906001019060200180831161210157829003601f168201915b50505050508152602001600882018054600181600116156101000203166002900480601f0160208091040260200160405190810160405280929190818152602001828054600181600116156101000203166002900480156121c05780601f10612195576101008083540402835291602001916121c0565b820191906000526020600020905b8154815290600101906020018083116121a357829003601f168201915b50505050508152602001600982018054600181600116156101000203166002900480601f0160208091040260200160405190810160405280929190818152602001828054600181600116156101000203166002900480156122625780601f1061223757610100808354040283529160200191612262565b820191906000526020600020905b81548152906001019060200180831161224557829003601f168201915b50505050508152602001600a82018054600181600116156101000203166002900480601f0160208091040260200160405190810160405280929190818152602001828054600181600116156101000203166002900480156123045780601f106122d957610100808354040283529160200191612304565b820191906000526020600020905b8154815290600101906020018083116122e757829003601f168201915b50505050508152602001600b82018054600181600116156101000203166002900480601f0160208091040260200160405190810160405280929190818152602001828054600181600116156101000203166002900480156123a65780601f1061237b576101008083540402835291602001916123a6565b820191906000526020600020905b81548152906001019060200180831161238957829003601f168201915b50505050508152602001600c82018054600181600116156101000203166002900480601f0160208091040260200160405190810160405280929190818152602001828054600181600116156101000203166002900480156124485780601f1061241d57610100808354040283529160200191612448565b820191906000526020600020905b81548152906001019060200180831161242b57829003601f168201915b50505050508152602001600d820160038060200260405190810160405280929190826003801561248d576020028201915b815481526020019060010190808311612479575b5050505050815260200160108201548152602001601182018054600181600116156101000203166002900480601f0160208091040260200160405190810160405280929190818152602001828054600181600116156101000203166002900480156125395780601f1061250e57610100808354040283529160200191612539565b820191906000526020600020905b81548152906001019060200180831161251c57829003601f168201915b505050505081525050905087878080601f016020809104026020016040519081016040528093929190818152602001838380828437820191505050505050816060018190525085858080601f0160208091040260200160405190810160405280939291908181526020018383808284378201915050505050508160a0018190525083838080601f0160208091040260200160405190810160405280939291908181526020018383808284378201915050505050508160c001819052508160038060200260405190810160405280929190826003602002808284378201915050505050816080018190525061262d818a6140ec565b505050505050505050565b6000606061264461428a565b60008085600019166000191681526020019081526020016000206101c060405190810160405290816000820154815260200160018201548152602001600282018054600181600116156101000203166002900480601f0160208091040260200160405190810160405280929190818152602001828054600181600116156101000203166002900480156127185780601f106126ed57610100808354040283529160200191612718565b820191906000526020600020905b8154815290600101906020018083116126fb57829003601f168201915b50505050508152602001600382018054600181600116156101000203166002900480601f0160208091040260200160405190810160405280929190818152602001828054600181600116156101000203166002900480156127ba5780601f1061278f576101008083540402835291602001916127ba565b820191906000526020600020905b81548152906001019060200180831161279d57829003601f168201915b50505050508152602001600482016003806020026040519081016040528092919082600380156127ff576020028201915b8154815260200190600101908083116127eb575b50505050508152602001600782018054600181600116156101000203166002900480601f0160208091040260200160405190810160405280929190818152602001828054600181600116156101000203166002900480156128a15780601f10612876576101008083540402835291602001916128a1565b820191906000526020600020905b81548152906001019060200180831161288457829003601f168201915b50505050508152602001600882018054600181600116156101000203166002900480601f0160208091040260200160405190810160405280929190818152602001828054600181600116156101000203166002900480156129435780601f1061291857610100808354040283529160200191612943565b820191906000526020600020905b81548152906001019060200180831161292657829003601f168201915b50505050508152602001600982018054600181600116156101000203166002900480601f0160208091040260200160405190810160405280929190818152602001828054600181600116156101000203166002900480156129e55780601f106129ba576101008083540402835291602001916129e5565b820191906000526020600020905b8154815290600101906020018083116129c857829003601f168201915b50505050508152602001600a82018054600181600116156101000203166002900480601f016020809104026020016040519081016040528092919081815260200182805460018160011615610100020316600290048015612a875780601f10612a5c57610100808354040283529160200191612a87565b820191906000526020600020905b815481529060010190602001808311612a6a57829003601f168201915b50505050508152602001600b82018054600181600116156101000203166002900480601f016020809104026020016040519081016040528092919081815260200182805460018160011615610100020316600290048015612b295780601f10612afe57610100808354040283529160200191612b29565b820191906000526020600020905b815481529060010190602001808311612b0c57829003601f168201915b50505050508152602001600c82018054600181600116156101000203166002900480601f016020809104026020016040519081016040528092919081815260200182805460018160011615610100020316600290048015612bcb5780601f10612ba057610100808354040283529160200191612bcb565b820191906000526020600020905b815481529060010190602001808311612bae57829003601f168201915b50505050508152602001600d8201600380602002604051908101604052809291908260038015612c10576020028201915b815481526020019060010190808311612bfc575b5050505050815260200160108201548152602001601182018054600181600116156101000203166002900480601f016020809104026020016040519081016040528092919081815260200182805460018160011615610100020316600290048015612cbc5780601f10612c9157610100808354040283529160200191612cbc565b820191906000526020600020905b815481529060010190602001808311612c9f57829003601f168201915b5050505050815250509050806020015181604001518090509250925050915091565b612ce661428a565b600360009054906101000a900473ffffffffffffffffffffffffffffffffffffffff1673ffffffffffffffffffffffffffffffffffffffff163373ffffffffffffffffffffffffffffffffffffffff16141515612dd1576040517f08c379a000000000000000000000000000000000000000000000000000000000815260040180806020018281038252602d8152602001807f596f7520617265206e6f742072656769737465726564206173206120736f727481526020017f696e6720617574686f726974790000000000000000000000000000000000000081525060400191505060405180910390fd5b6000808b600019166000191681526020019081526020016000206101c060405190810160405290816000820154815260200160018201548152602001600282018054600181600116156101000203166002900480601f016020809104026020016040519081016040528092919081815260200182805460018160011615610100020316600290048015612ea55780601f10612e7a57610100808354040283529160200191612ea5565b820191906000526020600020905b815481529060010190602001808311612e8857829003601f168201915b50505050508152602001600382018054600181600116156101000203166002900480601f016020809104026020016040519081016040528092919081815260200182805460018160011615610100020316600290048015612f475780601f10612f1c57610100808354040283529160200191612f47565b820191906000526020600020905b815481529060010190602001808311612f2a57829003601f168201915b5050505050815260200160048201600380602002604051908101604052809291908260038015612f8c576020028201915b815481526020019060010190808311612f78575b50505050508152602001600782018054600181600116156101000203166002900480601f01602080910402602001604051908101604052809291908181526020018280546001816001161561010002031660029004801561302e5780601f106130035761010080835404028352916020019161302e565b820191906000526020600020905b81548152906001019060200180831161301157829003601f168201915b50505050508152602001600882018054600181600116156101000203166002900480601f0160208091040260200160405190810160405280929190818152602001828054600181600116156101000203166002900480156130d05780601f106130a5576101008083540402835291602001916130d0565b820191906000526020600020905b8154815290600101906020018083116130b357829003601f168201915b50505050508152602001600982018054600181600116156101000203166002900480601f0160208091040260200160405190810160405280929190818152602001828054600181600116156101000203166002900480156131725780601f1061314757610100808354040283529160200191613172565b820191906000526020600020905b81548152906001019060200180831161315557829003601f168201915b50505050508152602001600a82018054600181600116156101000203166002900480601f0160208091040260200160405190810160405280929190818152602001828054600181600116156101000203166002900480156132145780601f106131e957610100808354040283529160200191613214565b820191906000526020600020905b8154815290600101906020018083116131f757829003601f168201915b50505050508152602001600b82018054600181600116156101000203166002900480601f0160208091040260200160405190810160405280929190818152602001828054600181600116156101000203166002900480156132b65780601f1061328b576101008083540402835291602001916132b6565b820191906000526020600020905b81548152906001019060200180831161329957829003601f168201915b50505050508152602001600c82018054600181600116156101000203166002900480601f0160208091040260200160405190810160405280929190818152602001828054600181600116156101000203166002900480156133585780601f1061332d57610100808354040283529160200191613358565b820191906000526020600020905b81548152906001019060200180831161333b57829003601f168201915b50505050508152602001600d820160038060200260405190810160405280929190826003801561339d576020028201915b815481526020019060010190808311613389575b5050505050815260200160108201548152602001601182018054600181600116156101000203166002900480601f0160208091040260200160405190810160405280929190818152602001828054600181600116156101000203166002900480156134495780601f1061341e57610100808354040283529160200191613449565b820191906000526020600020905b81548152906001019060200180831161342c57829003601f168201915b505050505081525050905088888080601f0160208091040260200160405190810160405280939291908181526020018383808284378201915050505050508160e0018190525086868080601f01602080910402602001604051908101604052809392919081815260200183838082843782019150505050505081610100018190525084848080601f01602080910402602001604051908101604052809392919081815260200183838082843782019150505050505081610120018190525082828080601f01602080910402602001604051908101604052809392919081815260200183838082843782019150505050505081610140018190525061354d818b6140ec565b50505050505050505050565b613561614267565b6000606061356d61428a565b60008086600019166000191681526020019081526020016000206101c060405190810160405290816000820154815260200160018201548152602001600282018054600181600116156101000203166002900480601f0160208091040260200160405190810160405280929190818152602001828054600181600116156101000203166002900480156136415780601f1061361657610100808354040283529160200191613641565b820191906000526020600020905b81548152906001019060200180831161362457829003601f168201915b50505050508152602001600382018054600181600116156101000203166002900480601f0160208091040260200160405190810160405280929190818152602001828054600181600116156101000203166002900480156136e35780601f106136b8576101008083540402835291602001916136e3565b820191906000526020600020905b8154815290600101906020018083116136c657829003601f168201915b5050505050815260200160048201600380602002604051908101604052809291908260038015613728576020028201915b815481526020019060010190808311613714575b50505050508152602001600782018054600181600116156101000203166002900480601f0160208091040260200160405190810160405280929190818152602001828054600181600116156101000203166002900480156137ca5780601f1061379f576101008083540402835291602001916137ca565b820191906000526020600020905b8154815290600101906020018083116137ad57829003601f168201915b50505050508152602001600882018054600181600116156101000203166002900480601f01602080910402602001604051908101604052809291908181526020018280546001816001161561010002031660029004801561386c5780601f106138415761010080835404028352916020019161386c565b820191906000526020600020905b81548152906001019060200180831161384f57829003601f168201915b50505050508152602001600982018054600181600116156101000203166002900480601f01602080910402602001604051908101604052809291908181526020018280546001816001161561010002031660029004801561390e5780601f106138e35761010080835404028352916020019161390e565b820191906000526020600020905b8154815290600101906020018083116138f157829003601f168201915b50505050508152602001600a82018054600181600116156101000203166002900480601f0160208091040260200160405190810160405280929190818152602001828054600181600116156101000203166002900480156139b05780601f10613985576101008083540402835291602001916139b0565b820191906000526020600020905b81548152906001019060200180831161399357829003601f168201915b50505050508152602001600b82018054600181600116156101000203166002900480601f016020809104026020016040519081016040528092919081815260200182805460018160011615610100020316600290048015613a525780601f10613a2757610100808354040283529160200191613a52565b820191906000526020600020905b815481529060010190602001808311613a3557829003601f168201915b50505050508152602001600c82018054600181600116156101000203166002900480601f016020809104026020016040519081016040528092919081815260200182805460018160011615610100020316600290048015613af45780601f10613ac957610100808354040283529160200191613af4565b820191906000526020600020905b815481529060010190602001808311613ad757829003601f168201915b50505050508152602001600d8201600380602002604051908101604052809291908260038015613b39576020028201915b815481526020019060010190808311613b25575b5050505050815260200160108201548152602001601182018054600181600116156101000203166002900480601f016020809104026020016040519081016040528092919081815260200182805460018160011615610100020316600290048015613be55780601f10613bba57610100808354040283529160200191613be5565b820191906000526020600020905b815481529060010190602001808311613bc857829003601f168201915b5050505050815250509050806101600151816101800151826101a00151829250809050935093509350509193909250565b600080600160009054906101000a900473ffffffffffffffffffffffffffffffffffffffff1673ffffffffffffffffffffffffffffffffffffffff163373ffffffffffffffffffffffffffffffffffffffff16141515613cde576040517f08c379a00000000000000000000000000000000000000000000000000000000081526004018080602001828103825260148152602001807f596f7520617265206e6f742061204d696e6e657200000000000000000000000081525060200191505060405180910390fd5b600285858886604051602001808060200184815260200183815260200182810382528686828181526020019250808284378201915050955050505050506040516020818303038152906040526040518082805190602001908083835b602083101515613d5f5780518252602082019150602081019050602083039250613d3a565b6001836020036101000a0380198251168184511680821785525050505050509050019150506020604051808303816000865af1158015613da3573d6000803e3d6000fd5b5050506040513d6020811015613db857600080fd5b810190808051906020019092919050505090506101c06040519081016040528060008152602001600081526020016020604051908101604052806000815250815260200160206040519081016040528060008152508152602001606060405190810160405280600081526020016000815260200160008152508152602001602060405190810160405280600081525081526020016020604051908101604052806000815250815260200160206040519081016040528060008152508152602001602060405190810160405280600081525081526020016020604051908101604052806000815250815260200160206040519081016040528060008152508152602001606060405190810160405280600081526020016000815260200160008152508152602001600081526020016020604051908101604052806000815250815250600080836000191660001916815260200190815260200160002060008201518160000155602082015181600101556040820151816002019080519060200190613f43929190614306565b506060820151816003019080519060200190613f60929190614306565b50608082015181600401906003613f78929190614386565b5060a0820151816007019080519060200190613f95929190614306565b5060c0820151816008019080519060200190613fb2929190614306565b5060e0820151816009019080519060200190613fcf929190614306565b5061010082015181600a019080519060200190613fed929190614306565b5061012082015181600b01908051906020019061400b929190614306565b5061014082015181600c019080519060200190614029929190614306565b5061016082015181600d01906003614042929190614386565b5061018082015181601001556101a082015181601101908051906020019061406b929190614306565b50905050856000808360001916600019168152602001908152602001600020600001819055508484600080846000191660001916815260200190815260200160002060020191906140bd9291906143c6565b508260008083600019166000191681526020019081526020016000206001018190555080915050949350505050565b81600080836000191660001916815260200190815260200160002060008201518160000155602082015181600101556040820151816002019080519060200190614137929190614306565b506060820151816003019080519060200190614154929190614306565b5060808201518160040190600361416c929190614386565b5060a0820151816007019080519060200190614189929190614306565b5060c08201518160080190805190602001906141a6929190614306565b5060e08201518160090190805190602001906141c3929190614306565b5061010082015181600a0190805190602001906141e1929190614306565b5061012082015181600b0190805190602001906141ff929190614306565b5061014082015181600c01908051906020019061421d929190614306565b5061016082015181600d01906003614236929190614386565b5061018082015181601001556101a082015181601101908051906020019061425f929190614306565b509050505050565b606060405190810160405280600390602082028038833980820191505090505090565b61024060405190810160405280600081526020016000815260200160608152602001606081526020016142bb614446565b81526020016060815260200160608152602001606081526020016060815260200160608152602001606081526020016142f2614446565b815260200160008152602001606081525090565b828054600181600116156101000203166002900490600052602060002090601f016020900481019282601f1061434757805160ff1916838001178555614375565b82800160010185558215614375579182015b82811115614374578251825591602001919060010190614359565b5b5090506143829190614469565b5090565b82600381019282156143b5579160200282015b828111156143b4578251825591602001919060010190614399565b5b5090506143c29190614469565b5090565b828054600181600116156101000203166002900490600052602060002090601f016020900481019282601f1061440757803560ff1916838001178555614435565b82800160010185558215614435579182015b82811115614434578235825591602001919060010190614419565b5b5090506144429190614469565b5090565b606060405190810160405280600390602082028038833980820191505090505090565b61448b91905b8082111561448757600081600090555060010161446f565b5090565b905600a165627a7a72305820da423e5392f00040e83e9320441a0dd396936c999bb244d568d94b3216e6b8af0029",
  "source": "pragma solidity^0.4.24;\ncontract DiaMonde{\nstruct Diamondedb{\n//mine\nuint256 mine_date;\nuint256 raw_weight;//56.00\nstring mine_loc;\n//Cutting & Polish\nstring cut_factoryloc;\nuint256[3] cut_mesurements;//[15,15,15] mm\nstring cut_grade;\nstring polish_grade;\n//Manufacture\nstring man_loc;\nstring comp_name;\nstring material;\nstring product;\n//Certificate\nuint256[3] cer_measurements;\nuint256 cer_weight;\nstring cer_grade;\n\n}\nmapping(bytes32 => Diamondedb)diamonds;\n\naddress private minner = 0x7C2C6d9F404bb083a154cc7Da19974668153c85f;//Acc1\naddress private cutter = 0xaA71B4177E9d00bc15d2E50071d98740cd25Ccf5;//Acc2\naddress private manufacturer = 0x3e1AbE71Fa0E35EF167544BB51bC3C281BFA89F3;//Acc4\naddress private certifier = 0x22eF52207C832aB7bBc50dFBcfC1a1C75742Da0F;//Acc5\n\nfunction isRegistered(bytes32 _hash)external view returns(bool,bytes32){\n  if(diamonds[_hash].mine_date==0){\n    return (false,'');\n  }else{\n    return (true,_hash);\n  }\n}\nfunction mine(uint256 _mine_date,string _mine_loc,uint256 _raw_weight)external returns(bytes32){\nrequire(msg.sender==minner, \"You are not a Minner\");\nbytes32 hash = sha256(abi.encode(_mine_loc,_mine_date,_raw_weight));\ndiamonds[hash] = Diamondedb(0,0,'','',[uint256(0),uint256(0),uint256(0)],'','','','','','',[uint256(0),uint256(0),uint256(0)],0,'');\ndiamonds[hash].mine_date=_mine_date;\ndiamonds[hash].mine_loc=_mine_loc;\ndiamonds[hash].raw_weight=_raw_weight;\nreturn (hash);\n}\nfunction cut(bytes32 _hash,string _cut_factoryloc,string _cut_grade,string _polish_grade,uint256[3] _cut_mesurements)external {\nrequire(msg.sender==cutter, \"You are not registered as a cutting authority\");\nDiamondedb memory u = diamonds[_hash];\nu.cut_factoryloc=_cut_factoryloc;\nu.cut_grade=_cut_grade;\nu.polish_grade=_polish_grade;\nu.cut_mesurements=_cut_mesurements;\nstore(u,_hash);\n}\nfunction manufacture(bytes32 _hash,string _man_loc,string _comp_name,string _material,string _product)external {\nrequire(msg.sender==manufacturer, \"You are not registered as a sorting authority\");\nDiamondedb memory u = diamonds[_hash];\nu.man_loc=_man_loc;\nu.comp_name=_comp_name;\nu.material=_material;\nu.product=_product;\nstore(u,_hash);\n}\nfunction certificate(bytes32 _hash, uint256[3] _cer_measurements,uint256 _cer_weight,  string _cer_grade)external {\nrequire(msg.sender==certifier, \"You are not registered as a certifing authority\");\nDiamondedb memory u =diamonds[_hash];\nu.cer_measurements=_cer_measurements;\nu.cer_weight=_cer_weight;\nu.cer_grade=_cer_grade;\nstore(u,_hash);\n}\nfunction store(Diamondedb _x,bytes32 _hash)private{\n    diamonds[_hash]=_x;\n}\n\nfunction getmine(bytes32 _hash)external view returns(\nuint256 raw_weight,\nstring mine_loc\n){\nDiamondedb memory u=diamonds[_hash];\nreturn(\nu.raw_weight,\nu.mine_loc);\n}\n\nfunction getcut(bytes32 _hash)external view returns(\nstring cut_factoryloc,\nuint256[3] cut_mesurements,\nstring cut_grade,\nstring polish_grade\n){\n  Diamondedb memory u=diamonds[_hash];\n  return(\n  u.cut_factoryloc,\n  u.cut_mesurements,\n  u.cut_grade,\n  u.polish_grade);\n}\n\n\nfunction getmanufacture(bytes32 _hash)external view returns(\n\nstring man_loc,\nstring comp_name,\nstring material,\nstring product){\n  Diamondedb memory u=diamonds[_hash];\n  return(\n  u.man_loc,\n  u.comp_name,\n  u.material,\n  u.product);\n}\nfunction getcer(bytes32 _hash)external view returns(\n  uint256[3] cer_measurements,\n  uint256 cer_weight,\n  string cer_grade\n\n){\n  Diamondedb memory u=diamonds[_hash];\n  return(\n    u.cer_measurements,\n    u.cer_weight,\n    u.cer_grade\n  );\n}\n}\n",
  "sourcePath": "/Users/jefferson.ding/Desktop/Git Repo/BLG-Hackathon/DiaMonde/contracts/DiaMonde.sol",
  "compiler": {
    "name": "solc",
    "version": "0.4.24+commit.e67f0147.Emscripten.clang"
  },
  "schemaVersion": "3.0.23",
  "updatedAt": "2020-02-11T05:58:01.954Z",
  "networkType": "ethereum",
  "devdoc": {
    "methods": {}
  },
  "userdoc": {
    "methods": {}
  }
}