{
  "contractName": "DiaMonde",
  "abi": [
    {
      "constant": false,
      "inputs": [
        {
          "name": "_mine_date",
          "type": "uint256"
        },
        {
          "name": "_raw_weight",
          "type": "uint256"
        },
        {
          "name": "_mine_loc",
          "type": "string"
        },
        {
          "name": "_miner_name",
          "type": "string"
        }
      ],
      "name": "mine",
      "outputs": [
        {
          "name": "",
          "type": "bytes32"
        }
      ],
      "payable": false,
      "stateMutability": "nonpayable",
      "type": "function"
    },
    {
      "constant": false,
      "inputs": [
        {
          "name": "_hash",
          "type": "bytes32"
        },
        {
          "name": "_sort_date",
          "type": "uint256"
        },
        {
          "name": "_sort_factoryloc",
          "type": "string"
        },
        {
          "name": "_sort_name",
          "type": "string"
        },
        {
          "name": "_sort_cat",
          "type": "string"
        }
      ],
      "name": "sort",
      "outputs": [],
      "payable": false,
      "stateMutability": "nonpayable",
      "type": "function"
    },
    {
      "constant": false,
      "inputs": [
        {
          "name": "_hash",
          "type": "bytes32"
        },
        {
          "name": "_cut_date",
          "type": "uint256"
        },
        {
          "name": "_cut_factoryloc",
          "type": "string"
        },
        {
          "name": "_cut_name",
          "type": "string"
        },
        {
          "name": "_cut_shape",
          "type": "string"
        },
        {
          "name": "_cut_grade",
          "type": "string"
        },
        {
          "name": "_polish_grade",
          "type": "string"
        },
        {
          "name": "_cut_mesurements",
          "type": "uint256[3]"
        }
      ],
      "name": "cut",
      "outputs": [],
      "payable": false,
      "stateMutability": "nonpayable",
      "type": "function"
    },
    {
      "constant": false,
      "inputs": [
        {
          "name": "_hash",
          "type": "bytes32"
        },
        {
          "name": "_man_date",
          "type": "uint256"
        },
        {
          "name": "_man_loc",
          "type": "string"
        },
        {
          "name": "_comp_name",
          "type": "string"
        },
        {
          "name": "_material",
          "type": "string"
        },
        {
          "name": "_product",
          "type": "string"
        }
      ],
      "name": "manufacture",
      "outputs": [],
      "payable": false,
      "stateMutability": "nonpayable",
      "type": "function"
    },
    {
      "constant": false,
      "inputs": [
        {
          "name": "_hash",
          "type": "bytes32"
        },
        {
          "name": "_cer_measurements",
          "type": "uint256[3]"
        },
        {
          "name": "_cer_weight",
          "type": "uint256"
        },
        {
          "name": "_cer_polish_grade",
          "type": "string"
        },
        {
          "name": "_cer_cut_grade",
          "type": "string"
        },
        {
          "name": "_process_hash",
          "type": "string"
        }
      ],
      "name": "certificate",
      "outputs": [],
      "payable": false,
      "stateMutability": "nonpayable",
      "type": "function"
    }
  ],
  "bytecode": "0x608060405234801561001057600080fd5b50614753806100206000396000f30060806040526004361061006d576000357c0100000000000000000000000000000000000000000000000000000000900463ffffffff1680630a379d7a146100725780630d4578941461012f578063206dcc68146101ca5780636ce49e1b14610257578063d43e4e79146102da575b600080fd5b34801561007e57600080fd5b5061012d6004803603810190808035600019169060200190929190803590602001909291908035906020019082018035906020019190919293919293908035906020019082018035906020019190919293919293908035906020019082018035906020019190919293919293908035906020019082018035906020019190919293919293908035906020019082018035906020019190919293919293908060600190919291929050505061035d565b005b34801561013b57600080fd5b506101c86004803603810190808035600019169060200190929190803590602001909291908035906020019082018035906020019190919293919293908035906020019082018035906020019190919293919293908035906020019082018035906020019190919293919293908035906020019082018035906020019190919293919293905050506111d9565b005b3480156101d657600080fd5b5061025560048036038101908080356000191690602001909291908060600190919291929080359060200190929190803590602001908201803590602001919091929391929390803590602001908201803590602001919091929391929390803590602001908201803590602001919091929391929390505050611fe8565b005b34801561026357600080fd5b506102bc6004803603810190808035906020019092919080359060200190929190803590602001908201803590602001919091929391929390803590602001908201803590602001919091929391929390505050612de9565b60405180826000191660001916815260200191505060405180910390f35b3480156102e657600080fd5b5061035b6004803603810190808035600019169060200190929190803590602001909291908035906020019082018035906020019190919293919293908035906020019082018035906020019190919293919293908035906020019082018035906020019190919293919293905050506133f7565b005b6103656144c8565b6000808f6000191660001916815260200190815260200160002061036060405190810160405290816000820154815260200160018201548152602001600282018054600181600116156101000203166002900480601f0160208091040260200160405190810160405280929190818152602001828054600181600116156101000203166002900480156104395780601f1061040e57610100808354040283529160200191610439565b820191906000526020600020905b81548152906001019060200180831161041c57829003601f168201915b50505050508152602001600382018054600181600116156101000203166002900480601f0160208091040260200160405190810160405280929190818152602001828054600181600116156101000203166002900480156104db5780601f106104b0576101008083540402835291602001916104db565b820191906000526020600020905b8154815290600101906020018083116104be57829003601f168201915b5050505050815260200160048201548152602001600582018054600181600116156101000203166002900480601f0160208091040260200160405190810160405280929190818152602001828054600181600116156101000203166002900480156105875780601f1061055c57610100808354040283529160200191610587565b820191906000526020600020905b81548152906001019060200180831161056a57829003601f168201915b50505050508152602001600682018054600181600116156101000203166002900480601f0160208091040260200160405190810160405280929190818152602001828054600181600116156101000203166002900480156106295780601f106105fe57610100808354040283529160200191610629565b820191906000526020600020905b81548152906001019060200180831161060c57829003601f168201915b50505050508152602001600782018054600181600116156101000203166002900480601f0160208091040260200160405190810160405280929190818152602001828054600181600116156101000203166002900480156106cb5780601f106106a0576101008083540402835291602001916106cb565b820191906000526020600020905b8154815290600101906020018083116106ae57829003601f168201915b50505050508152602001600882018054600181600116156101000203166002900480601f01602080910402602001604051908101604052809291908181526020018280546001816001161561010002031660029004801561076d5780601f106107425761010080835404028352916020019161076d565b820191906000526020600020905b81548152906001019060200180831161075057829003601f168201915b5050505050815260200160098201548152602001600a82018054600181600116156101000203166002900480601f0160208091040260200160405190810160405280929190818152602001828054600181600116156101000203166002900480156108195780601f106107ee57610100808354040283529160200191610819565b820191906000526020600020905b8154815290600101906020018083116107fc57829003601f168201915b50505050508152602001600b820160038060200260405190810160405280929190826003801561085e576020028201915b81548152602001906001019080831161084a575b50505050508152602001600e82018054600181600116156101000203166002900480601f0160208091040260200160405190810160405280929190818152602001828054600181600116156101000203166002900480156109005780601f106108d557610100808354040283529160200191610900565b820191906000526020600020905b8154815290600101906020018083116108e357829003601f168201915b50505050508152602001600f82018054600181600116156101000203166002900480601f0160208091040260200160405190810160405280929190818152602001828054600181600116156101000203166002900480156109a25780601f10610977576101008083540402835291602001916109a2565b820191906000526020600020905b81548152906001019060200180831161098557829003601f168201915b50505050508152602001601082018054600181600116156101000203166002900480601f016020809104026020016040519081016040528092919081815260200182805460018160011615610100020316600290048015610a445780601f10610a1957610100808354040283529160200191610a44565b820191906000526020600020905b815481529060010190602001808311610a2757829003601f168201915b50505050508152602001601182018054600181600116156101000203166002900480601f016020809104026020016040519081016040528092919081815260200182805460018160011615610100020316600290048015610ae65780601f10610abb57610100808354040283529160200191610ae6565b820191906000526020600020905b815481529060010190602001808311610ac957829003601f168201915b5050505050815260200160128201548152602001601382018054600181600116156101000203166002900480601f016020809104026020016040519081016040528092919081815260200182805460018160011615610100020316600290048015610b925780601f10610b6757610100808354040283529160200191610b92565b820191906000526020600020905b815481529060010190602001808311610b7557829003601f168201915b50505050508152602001601482018054600181600116156101000203166002900480601f016020809104026020016040519081016040528092919081815260200182805460018160011615610100020316600290048015610c345780601f10610c0957610100808354040283529160200191610c34565b820191906000526020600020905b815481529060010190602001808311610c1757829003601f168201915b50505050508152602001601582018054600181600116156101000203166002900480601f016020809104026020016040519081016040528092919081815260200182805460018160011615610100020316600290048015610cd65780601f10610cab57610100808354040283529160200191610cd6565b820191906000526020600020905b815481529060010190602001808311610cb957829003601f168201915b50505050508152602001601682018054600181600116156101000203166002900480601f016020809104026020016040519081016040528092919081815260200182805460018160011615610100020316600290048015610d785780601f10610d4d57610100808354040283529160200191610d78565b820191906000526020600020905b815481529060010190602001808311610d5b57829003601f168201915b5050505050815260200160178201600380602002604051908101604052809291908260038015610dbd576020028201915b815481526020019060010190808311610da9575b50505050508152602001601a82018054600181600116156101000203166002900480601f016020809104026020016040519081016040528092919081815260200182805460018160011615610100020316600290048015610e5f5780601f10610e3457610100808354040283529160200191610e5f565b820191906000526020600020905b815481529060010190602001808311610e4257829003601f168201915b50505050508152602001601b8201548152602001601c82018054600181600116156101000203166002900480601f016020809104026020016040519081016040528092919081815260200182805460018160011615610100020316600290048015610f0b5780601f10610ee057610100808354040283529160200191610f0b565b820191906000526020600020905b815481529060010190602001808311610eee57829003601f168201915b50505050508152602001601d82018054600181600116156101000203166002900480601f016020809104026020016040519081016040528092919081815260200182805460018160011615610100020316600290048015610fad5780601f10610f8257610100808354040283529160200191610fad565b820191906000526020600020905b815481529060010190602001808311610f9057829003601f168201915b50505050508152602001601e82018054600181600116156101000203166002900480601f01602080910402602001604051908101604052809291908181526020018280546001816001161561010002031660029004801561104f5780601f106110245761010080835404028352916020019161104f565b820191906000526020600020905b81548152906001019060200180831161103257829003601f168201915b50505050508152505090508c816101200181815250508b8b8080601f01602080910402602001604051908101604052809392919081815260200183838082843782019150505050505081610140018190525089898080601f0160208091040260200160405190810160405280939291908181526020018383808284378201915050505050508160c0018190525087878080601f016020809104026020016040519081016040528093929190818152602001838380828437820191505050505050816101a0018190525085858080601f016020809104026020016040519081016040528093929190818152602001838380828437820191505050505050816101c0018190525083838080601f016020809104026020016040519081016040528093929190818152602001838380828437820191505050505050816101e0018190525081600380602002604051908101604052809291908260036020028082843782019150505050508161016001819052506111c9818f614200565b5050505050505050505050505050565b6111e16144c8565b6000808c6000191660001916815260200190815260200160002061036060405190810160405290816000820154815260200160018201548152602001600282018054600181600116156101000203166002900480601f0160208091040260200160405190810160405280929190818152602001828054600181600116156101000203166002900480156112b55780601f1061128a576101008083540402835291602001916112b5565b820191906000526020600020905b81548152906001019060200180831161129857829003601f168201915b50505050508152602001600382018054600181600116156101000203166002900480601f0160208091040260200160405190810160405280929190818152602001828054600181600116156101000203166002900480156113575780601f1061132c57610100808354040283529160200191611357565b820191906000526020600020905b81548152906001019060200180831161133a57829003601f168201915b5050505050815260200160048201548152602001600582018054600181600116156101000203166002900480601f0160208091040260200160405190810160405280929190818152602001828054600181600116156101000203166002900480156114035780601f106113d857610100808354040283529160200191611403565b820191906000526020600020905b8154815290600101906020018083116113e657829003601f168201915b50505050508152602001600682018054600181600116156101000203166002900480601f0160208091040260200160405190810160405280929190818152602001828054600181600116156101000203166002900480156114a55780601f1061147a576101008083540402835291602001916114a5565b820191906000526020600020905b81548152906001019060200180831161148857829003601f168201915b50505050508152602001600782018054600181600116156101000203166002900480601f0160208091040260200160405190810160405280929190818152602001828054600181600116156101000203166002900480156115475780601f1061151c57610100808354040283529160200191611547565b820191906000526020600020905b81548152906001019060200180831161152a57829003601f168201915b50505050508152602001600882018054600181600116156101000203166002900480601f0160208091040260200160405190810160405280929190818152602001828054600181600116156101000203166002900480156115e95780601f106115be576101008083540402835291602001916115e9565b820191906000526020600020905b8154815290600101906020018083116115cc57829003601f168201915b5050505050815260200160098201548152602001600a82018054600181600116156101000203166002900480601f0160208091040260200160405190810160405280929190818152602001828054600181600116156101000203166002900480156116955780601f1061166a57610100808354040283529160200191611695565b820191906000526020600020905b81548152906001019060200180831161167857829003601f168201915b50505050508152602001600b82016003806020026040519081016040528092919082600380156116da576020028201915b8154815260200190600101908083116116c6575b50505050508152602001600e82018054600181600116156101000203166002900480601f01602080910402602001604051908101604052809291908181526020018280546001816001161561010002031660029004801561177c5780601f106117515761010080835404028352916020019161177c565b820191906000526020600020905b81548152906001019060200180831161175f57829003601f168201915b50505050508152602001600f82018054600181600116156101000203166002900480601f01602080910402602001604051908101604052809291908181526020018280546001816001161561010002031660029004801561181e5780601f106117f35761010080835404028352916020019161181e565b820191906000526020600020905b81548152906001019060200180831161180157829003601f168201915b50505050508152602001601082018054600181600116156101000203166002900480601f0160208091040260200160405190810160405280929190818152602001828054600181600116156101000203166002900480156118c05780601f10611895576101008083540402835291602001916118c0565b820191906000526020600020905b8154815290600101906020018083116118a357829003601f168201915b50505050508152602001601182018054600181600116156101000203166002900480601f0160208091040260200160405190810160405280929190818152602001828054600181600116156101000203166002900480156119625780601f1061193757610100808354040283529160200191611962565b820191906000526020600020905b81548152906001019060200180831161194557829003601f168201915b5050505050815260200160128201548152602001601382018054600181600116156101000203166002900480601f016020809104026020016040519081016040528092919081815260200182805460018160011615610100020316600290048015611a0e5780601f106119e357610100808354040283529160200191611a0e565b820191906000526020600020905b8154815290600101906020018083116119f157829003601f168201915b50505050508152602001601482018054600181600116156101000203166002900480601f016020809104026020016040519081016040528092919081815260200182805460018160011615610100020316600290048015611ab05780601f10611a8557610100808354040283529160200191611ab0565b820191906000526020600020905b815481529060010190602001808311611a9357829003601f168201915b50505050508152602001601582018054600181600116156101000203166002900480601f016020809104026020016040519081016040528092919081815260200182805460018160011615610100020316600290048015611b525780601f10611b2757610100808354040283529160200191611b52565b820191906000526020600020905b815481529060010190602001808311611b3557829003601f168201915b50505050508152602001601682018054600181600116156101000203166002900480601f016020809104026020016040519081016040528092919081815260200182805460018160011615610100020316600290048015611bf45780601f10611bc957610100808354040283529160200191611bf4565b820191906000526020600020905b815481529060010190602001808311611bd757829003601f168201915b5050505050815260200160178201600380602002604051908101604052809291908260038015611c39576020028201915b815481526020019060010190808311611c25575b50505050508152602001601a82018054600181600116156101000203166002900480601f016020809104026020016040519081016040528092919081815260200182805460018160011615610100020316600290048015611cdb5780601f10611cb057610100808354040283529160200191611cdb565b820191906000526020600020905b815481529060010190602001808311611cbe57829003601f168201915b50505050508152602001601b8201548152602001601c82018054600181600116156101000203166002900480601f016020809104026020016040519081016040528092919081815260200182805460018160011615610100020316600290048015611d875780601f10611d5c57610100808354040283529160200191611d87565b820191906000526020600020905b815481529060010190602001808311611d6a57829003601f168201915b50505050508152602001601d82018054600181600116156101000203166002900480601f016020809104026020016040519081016040528092919081815260200182805460018160011615610100020316600290048015611e295780601f10611dfe57610100808354040283529160200191611e29565b820191906000526020600020905b815481529060010190602001808311611e0c57829003601f168201915b50505050508152602001601e82018054600181600116156101000203166002900480601f016020809104026020016040519081016040528092919081815260200182805460018160011615610100020316600290048015611ecb5780601f10611ea057610100808354040283529160200191611ecb565b820191906000526020600020905b815481529060010190602001808311611eae57829003601f168201915b5050505050815250509050898161020001818152505088888080601f01602080910402602001604051908101604052809392919081815260200183838082843782019150505050505081610220018190525086868080601f01602080910402602001604051908101604052809392919081815260200183838082843782019150505050505081610240018190525084848080601f01602080910402602001604051908101604052809392919081815260200183838082843782019150505050505081610260018190525082828080601f016020809104026020016040519081016040528093929190818152602001838380828437820191505050505050816102800181905250611fdb818c614200565b5050505050505050505050565b611ff06144c8565b6000808b6000191660001916815260200190815260200160002061036060405190810160405290816000820154815260200160018201548152602001600282018054600181600116156101000203166002900480601f0160208091040260200160405190810160405280929190818152602001828054600181600116156101000203166002900480156120c45780601f10612099576101008083540402835291602001916120c4565b820191906000526020600020905b8154815290600101906020018083116120a757829003601f168201915b50505050508152602001600382018054600181600116156101000203166002900480601f0160208091040260200160405190810160405280929190818152602001828054600181600116156101000203166002900480156121665780601f1061213b57610100808354040283529160200191612166565b820191906000526020600020905b81548152906001019060200180831161214957829003601f168201915b5050505050815260200160048201548152602001600582018054600181600116156101000203166002900480601f0160208091040260200160405190810160405280929190818152602001828054600181600116156101000203166002900480156122125780601f106121e757610100808354040283529160200191612212565b820191906000526020600020905b8154815290600101906020018083116121f557829003601f168201915b50505050508152602001600682018054600181600116156101000203166002900480601f0160208091040260200160405190810160405280929190818152602001828054600181600116156101000203166002900480156122b45780601f10612289576101008083540402835291602001916122b4565b820191906000526020600020905b81548152906001019060200180831161229757829003601f168201915b50505050508152602001600782018054600181600116156101000203166002900480601f0160208091040260200160405190810160405280929190818152602001828054600181600116156101000203166002900480156123565780601f1061232b57610100808354040283529160200191612356565b820191906000526020600020905b81548152906001019060200180831161233957829003601f168201915b50505050508152602001600882018054600181600116156101000203166002900480601f0160208091040260200160405190810160405280929190818152602001828054600181600116156101000203166002900480156123f85780601f106123cd576101008083540402835291602001916123f8565b820191906000526020600020905b8154815290600101906020018083116123db57829003601f168201915b5050505050815260200160098201548152602001600a82018054600181600116156101000203166002900480601f0160208091040260200160405190810160405280929190818152602001828054600181600116156101000203166002900480156124a45780601f10612479576101008083540402835291602001916124a4565b820191906000526020600020905b81548152906001019060200180831161248757829003601f168201915b50505050508152602001600b82016003806020026040519081016040528092919082600380156124e9576020028201915b8154815260200190600101908083116124d5575b50505050508152602001600e82018054600181600116156101000203166002900480601f01602080910402602001604051908101604052809291908181526020018280546001816001161561010002031660029004801561258b5780601f106125605761010080835404028352916020019161258b565b820191906000526020600020905b81548152906001019060200180831161256e57829003601f168201915b50505050508152602001600f82018054600181600116156101000203166002900480601f01602080910402602001604051908101604052809291908181526020018280546001816001161561010002031660029004801561262d5780601f106126025761010080835404028352916020019161262d565b820191906000526020600020905b81548152906001019060200180831161261057829003601f168201915b50505050508152602001601082018054600181600116156101000203166002900480601f0160208091040260200160405190810160405280929190818152602001828054600181600116156101000203166002900480156126cf5780601f106126a4576101008083540402835291602001916126cf565b820191906000526020600020905b8154815290600101906020018083116126b257829003601f168201915b50505050508152602001601182018054600181600116156101000203166002900480601f0160208091040260200160405190810160405280929190818152602001828054600181600116156101000203166002900480156127715780601f1061274657610100808354040283529160200191612771565b820191906000526020600020905b81548152906001019060200180831161275457829003601f168201915b5050505050815260200160128201548152602001601382018054600181600116156101000203166002900480601f01602080910402602001604051908101604052809291908181526020018280546001816001161561010002031660029004801561281d5780601f106127f25761010080835404028352916020019161281d565b820191906000526020600020905b81548152906001019060200180831161280057829003601f168201915b50505050508152602001601482018054600181600116156101000203166002900480601f0160208091040260200160405190810160405280929190818152602001828054600181600116156101000203166002900480156128bf5780601f10612894576101008083540402835291602001916128bf565b820191906000526020600020905b8154815290600101906020018083116128a257829003601f168201915b50505050508152602001601582018054600181600116156101000203166002900480601f0160208091040260200160405190810160405280929190818152602001828054600181600116156101000203166002900480156129615780601f1061293657610100808354040283529160200191612961565b820191906000526020600020905b81548152906001019060200180831161294457829003601f168201915b50505050508152602001601682018054600181600116156101000203166002900480601f016020809104026020016040519081016040528092919081815260200182805460018160011615610100020316600290048015612a035780601f106129d857610100808354040283529160200191612a03565b820191906000526020600020905b8154815290600101906020018083116129e657829003601f168201915b5050505050815260200160178201600380602002604051908101604052809291908260038015612a48576020028201915b815481526020019060010190808311612a34575b50505050508152602001601a82018054600181600116156101000203166002900480601f016020809104026020016040519081016040528092919081815260200182805460018160011615610100020316600290048015612aea5780601f10612abf57610100808354040283529160200191612aea565b820191906000526020600020905b815481529060010190602001808311612acd57829003601f168201915b50505050508152602001601b8201548152602001601c82018054600181600116156101000203166002900480601f016020809104026020016040519081016040528092919081815260200182805460018160011615610100020316600290048015612b965780601f10612b6b57610100808354040283529160200191612b96565b820191906000526020600020905b815481529060010190602001808311612b7957829003601f168201915b50505050508152602001601d82018054600181600116156101000203166002900480601f016020809104026020016040519081016040528092919081815260200182805460018160011615610100020316600290048015612c385780601f10612c0d57610100808354040283529160200191612c38565b820191906000526020600020905b815481529060010190602001808311612c1b57829003601f168201915b50505050508152602001601e82018054600181600116156101000203166002900480601f016020809104026020016040519081016040528092919081815260200182805460018160011615610100020316600290048015612cda5780601f10612caf57610100808354040283529160200191612cda565b820191906000526020600020905b815481529060010190602001808311612cbd57829003601f168201915b50505050508152505090508860038060200260405190810160405280929190826003602002808284378201915050505050816102a0018190525087816102e001818152505086868080601f01602080910402602001604051908101604052809392919081815260200183838082843782019150505050505081610300018190525084848080601f01602080910402602001604051908101604052809392919081815260200183838082843782019150505050505081610320018190525082828080601f016020809104026020016040519081016040528093929190818152602001838380828437820191505050505050816103400181905250612ddd818b614200565b50505050505050505050565b6000806002848488888c8c604051808787808284378201915050858580828437820191505083815260200182815260200196505050505050506020604051808303816000865af1158015612e41573d6000803e3d6000fd5b5050506040513d6020811015612e5657600080fd5b810190808051906020019092919050505090506103606040519081016040528060008152602001600081526020016020604051908101604052806000815250815260200160206040519081016040528060008152508152602001600081526020016020604051908101604052806000815250815260200160206040519081016040528060008152508152602001602060405190810160405280600081525081526020016020604051908101604052806000815250815260200160008152602001602060405190810160405280600081525081526020016060604051908101604052806000815260200160008152602001600081525081526020016020604051908101604052806000815250815260200160206040519081016040528060008152508152602001602060405190810160405280600081525081526020016020604051908101604052806000815250815260200160008152602001602060405190810160405280600081525081526020016020604051908101604052806000815250815260200160206040519081016040528060008152508152602001602060405190810160405280600081525081526020016060604051908101604052806000815260200160008152602001600081525081526020016020604051908101604052806000815250815260200160008152602001602060405190810160405280600081525081526020016020604051908101604052806000815250815260200160206040519081016040528060008152508152506000808360001916600019168152602001908152602001600020600082015181600001556020820151816001015560408201518160020190805190602001906130d292919061459f565b5060608201518160030190805190602001906130ef92919061459f565b506080820151816004015560a082015181600501908051906020019061311692919061459f565b5060c082015181600601908051906020019061313392919061459f565b5060e082015181600701908051906020019061315092919061459f565b5061010082015181600801908051906020019061316e92919061459f565b50610120820151816009015561014082015181600a01908051906020019061319792919061459f565b5061016082015181600b019060036131b092919061461f565b5061018082015181600e0190805190602001906131ce92919061459f565b506101a082015181600f0190805190602001906131ec92919061459f565b506101c082015181601001908051906020019061320a92919061459f565b506101e082015181601101908051906020019061322892919061459f565b50610200820151816012015561022082015181601301908051906020019061325192919061459f565b5061024082015181601401908051906020019061326f92919061459f565b5061026082015181601501908051906020019061328d92919061459f565b506102808201518160160190805190602001906132ab92919061459f565b506102a0820151816017019060036132c492919061461f565b506102c082015181601a0190805190602001906132e292919061459f565b506102e082015181601b015561030082015181601c01908051906020019061330b92919061459f565b5061032082015181601d01908051906020019061332992919061459f565b5061034082015181601e01908051906020019061334792919061459f565b5090505087600080836000191660001916815260200190815260200160002060000181905550866000808360001916600019168152602001908152602001600020600101819055508585600080846000191660001916815260200190815260200160002060020191906133bb92919061465f565b508383600080846000191660001916815260200190815260200160002060030191906133e892919061465f565b50809150509695505050505050565b6133ff6144c8565b6000808a6000191660001916815260200190815260200160002061036060405190810160405290816000820154815260200160018201548152602001600282018054600181600116156101000203166002900480601f0160208091040260200160405190810160405280929190818152602001828054600181600116156101000203166002900480156134d35780601f106134a8576101008083540402835291602001916134d3565b820191906000526020600020905b8154815290600101906020018083116134b657829003601f168201915b50505050508152602001600382018054600181600116156101000203166002900480601f0160208091040260200160405190810160405280929190818152602001828054600181600116156101000203166002900480156135755780601f1061354a57610100808354040283529160200191613575565b820191906000526020600020905b81548152906001019060200180831161355857829003601f168201915b5050505050815260200160048201548152602001600582018054600181600116156101000203166002900480601f0160208091040260200160405190810160405280929190818152602001828054600181600116156101000203166002900480156136215780601f106135f657610100808354040283529160200191613621565b820191906000526020600020905b81548152906001019060200180831161360457829003601f168201915b50505050508152602001600682018054600181600116156101000203166002900480601f0160208091040260200160405190810160405280929190818152602001828054600181600116156101000203166002900480156136c35780601f10613698576101008083540402835291602001916136c3565b820191906000526020600020905b8154815290600101906020018083116136a657829003601f168201915b50505050508152602001600782018054600181600116156101000203166002900480601f0160208091040260200160405190810160405280929190818152602001828054600181600116156101000203166002900480156137655780601f1061373a57610100808354040283529160200191613765565b820191906000526020600020905b81548152906001019060200180831161374857829003601f168201915b50505050508152602001600882018054600181600116156101000203166002900480601f0160208091040260200160405190810160405280929190818152602001828054600181600116156101000203166002900480156138075780601f106137dc57610100808354040283529160200191613807565b820191906000526020600020905b8154815290600101906020018083116137ea57829003601f168201915b5050505050815260200160098201548152602001600a82018054600181600116156101000203166002900480601f0160208091040260200160405190810160405280929190818152602001828054600181600116156101000203166002900480156138b35780601f10613888576101008083540402835291602001916138b3565b820191906000526020600020905b81548152906001019060200180831161389657829003601f168201915b50505050508152602001600b82016003806020026040519081016040528092919082600380156138f8576020028201915b8154815260200190600101908083116138e4575b50505050508152602001600e82018054600181600116156101000203166002900480601f01602080910402602001604051908101604052809291908181526020018280546001816001161561010002031660029004801561399a5780601f1061396f5761010080835404028352916020019161399a565b820191906000526020600020905b81548152906001019060200180831161397d57829003601f168201915b50505050508152602001600f82018054600181600116156101000203166002900480601f016020809104026020016040519081016040528092919081815260200182805460018160011615610100020316600290048015613a3c5780601f10613a1157610100808354040283529160200191613a3c565b820191906000526020600020905b815481529060010190602001808311613a1f57829003601f168201915b50505050508152602001601082018054600181600116156101000203166002900480601f016020809104026020016040519081016040528092919081815260200182805460018160011615610100020316600290048015613ade5780601f10613ab357610100808354040283529160200191613ade565b820191906000526020600020905b815481529060010190602001808311613ac157829003601f168201915b50505050508152602001601182018054600181600116156101000203166002900480601f016020809104026020016040519081016040528092919081815260200182805460018160011615610100020316600290048015613b805780601f10613b5557610100808354040283529160200191613b80565b820191906000526020600020905b815481529060010190602001808311613b6357829003601f168201915b5050505050815260200160128201548152602001601382018054600181600116156101000203166002900480601f016020809104026020016040519081016040528092919081815260200182805460018160011615610100020316600290048015613c2c5780601f10613c0157610100808354040283529160200191613c2c565b820191906000526020600020905b815481529060010190602001808311613c0f57829003601f168201915b50505050508152602001601482018054600181600116156101000203166002900480601f016020809104026020016040519081016040528092919081815260200182805460018160011615610100020316600290048015613cce5780601f10613ca357610100808354040283529160200191613cce565b820191906000526020600020905b815481529060010190602001808311613cb157829003601f168201915b50505050508152602001601582018054600181600116156101000203166002900480601f016020809104026020016040519081016040528092919081815260200182805460018160011615610100020316600290048015613d705780601f10613d4557610100808354040283529160200191613d70565b820191906000526020600020905b815481529060010190602001808311613d5357829003601f168201915b50505050508152602001601682018054600181600116156101000203166002900480601f016020809104026020016040519081016040528092919081815260200182805460018160011615610100020316600290048015613e125780601f10613de757610100808354040283529160200191613e12565b820191906000526020600020905b815481529060010190602001808311613df557829003601f168201915b5050505050815260200160178201600380602002604051908101604052809291908260038015613e57576020028201915b815481526020019060010190808311613e43575b50505050508152602001601a82018054600181600116156101000203166002900480601f016020809104026020016040519081016040528092919081815260200182805460018160011615610100020316600290048015613ef95780601f10613ece57610100808354040283529160200191613ef9565b820191906000526020600020905b815481529060010190602001808311613edc57829003601f168201915b50505050508152602001601b8201548152602001601c82018054600181600116156101000203166002900480601f016020809104026020016040519081016040528092919081815260200182805460018160011615610100020316600290048015613fa55780601f10613f7a57610100808354040283529160200191613fa5565b820191906000526020600020905b815481529060010190602001808311613f8857829003601f168201915b50505050508152602001601d82018054600181600116156101000203166002900480601f0160208091040260200160405190810160405280929190818152602001828054600181600116156101000203166002900480156140475780601f1061401c57610100808354040283529160200191614047565b820191906000526020600020905b81548152906001019060200180831161402a57829003601f168201915b50505050508152602001601e82018054600181600116156101000203166002900480601f0160208091040260200160405190810160405280929190818152602001828054600181600116156101000203166002900480156140e95780601f106140be576101008083540402835291602001916140e9565b820191906000526020600020905b8154815290600101906020018083116140cc57829003601f168201915b50505050508152505090508781608001818152505086868080601f0160208091040260200160405190810160405280939291908181526020018383808284378201915050505050508160a0018190525084848080601f0160208091040260200160405190810160405280939291908181526020018383808284378201915050505050508160c0018190525082828080601f0160208091040260200160405190810160405280939291908181526020018383808284378201915050505050508160e0018190525082828080601f0160208091040260200160405190810160405280939291908181526020018383808284378201915050505050508161010001819052506141f5818a614200565b505050505050505050565b8160008083600019166000191681526020019081526020016000206000820151816000015560208201518160010155604082015181600201908051906020019061424b92919061459f565b50606082015181600301908051906020019061426892919061459f565b506080820151816004015560a082015181600501908051906020019061428f92919061459f565b5060c08201518160060190805190602001906142ac92919061459f565b5060e08201518160070190805190602001906142c992919061459f565b506101008201518160080190805190602001906142e792919061459f565b50610120820151816009015561014082015181600a01908051906020019061431092919061459f565b5061016082015181600b0190600361432992919061461f565b5061018082015181600e01908051906020019061434792919061459f565b506101a082015181600f01908051906020019061436592919061459f565b506101c082015181601001908051906020019061438392919061459f565b506101e08201518160110190805190602001906143a192919061459f565b5061020082015181601201556102208201518160130190805190602001906143ca92919061459f565b506102408201518160140190805190602001906143e892919061459f565b5061026082015181601501908051906020019061440692919061459f565b5061028082015181601601908051906020019061442492919061459f565b506102a08201518160170190600361443d92919061461f565b506102c082015181601a01908051906020019061445b92919061459f565b506102e082015181601b015561030082015181601c01908051906020019061448492919061459f565b5061032082015181601d0190805190602001906144a292919061459f565b5061034082015181601e0190805190602001906144c092919061459f565b509050505050565b6103e060405190810160405280600081526020016000815260200160608152602001606081526020016000815260200160608152602001606081526020016060815260200160608152602001600081526020016060815260200161452a6146df565b81526020016060815260200160608152602001606081526020016060815260200160008152602001606081526020016060815260200160608152602001606081526020016145766146df565b815260200160608152602001600081526020016060815260200160608152602001606081525090565b828054600181600116156101000203166002900490600052602060002090601f016020900481019282601f106145e057805160ff191683800117855561460e565b8280016001018555821561460e579182015b8281111561460d5782518255916020019190600101906145f2565b5b50905061461b9190614702565b5090565b826003810192821561464e579160200282015b8281111561464d578251825591602001919060010190614632565b5b50905061465b9190614702565b5090565b828054600181600116156101000203166002900490600052602060002090601f016020900481019282601f106146a057803560ff19168380011785556146ce565b828001600101855582156146ce579182015b828111156146cd5782358255916020019190600101906146b2565b5b5090506146db9190614702565b5090565b606060405190810160405280600390602082028038833980820191505090505090565b61472491905b80821115614720576000816000905550600101614708565b5090565b905600a165627a7a72305820a9b8f9e8185fdc118e0cc7630b050318665d174324dd12800782bd175f58e5650029",
  "source": "pragma solidity^0.4.24;\ncontract DiaMonde{\nstruct Diamondedb{\n//mine\nuint256 mine_date; //04252020\nuint256 raw_weight;//56.00\nstring mine_loc;\nstring miner_name;\n//sorting\nuint256 sort_date;\nstring sort_factoryloc;\nstring sort_name;\nstring sort_cat;\nstring sort_facility;\n\n//Cutting & Polish\nuint256 cut_date;\nstring cut_factoryloc;\nuint256[3] cut_mesurements;//[15,15,15] mm\nstring cut_name;\nstring cut_shape;\nstring cut_grade;\nstring polish_grade;\n//Manufacture\nuint256 man_date;\nstring man_loc;\nstring comp_name;\nstring material;\nstring product;\n//Certificate\nuint256[3] cer_measurements;\nstring cer_shape;\nuint256 cer_weight;\nstring cer_polish_grade;\nstring cer_cut_grade;\nstring process_hash;\n\n}\nmapping(bytes32 => Diamondedb)diamonds;\n\nfunction mine(uint256 _mine_date,uint _raw_weight,string _mine_loc,string _miner_name)external returns(bytes32){\nbytes32 hash = sha256(_miner_name,_mine_loc,_mine_date,_raw_weight);\ndiamonds[hash] = Diamondedb(0,0,'','',0,'','','','',0,'',[uint256(0),uint256(0),uint256(0)],'','','','',0,'','','','',[uint256(0),uint256(0),uint256(0)],'',0,'','','');\ndiamonds[hash].mine_date=_mine_date;\ndiamonds[hash].raw_weight=_raw_weight;\ndiamonds[hash].mine_loc=_mine_loc;\ndiamonds[hash].miner_name=_miner_name;\nreturn (hash);\n}\nfunction sort(bytes32 _hash,uint256 _sort_date,string _sort_factoryloc,string _sort_name,string _sort_cat)external {\nDiamondedb memory u = diamonds[_hash];\nu.sort_date=_sort_date;\nu.sort_factoryloc=_sort_factoryloc;\nu.sort_name=_sort_name;\nu.sort_cat=_sort_cat;\nu.sort_facility=_sort_cat;\nstore(u,_hash);\n}\nfunction cut(bytes32 _hash,uint256 _cut_date,string _cut_factoryloc,string _cut_name,string _cut_shape,string _cut_grade,string _polish_grade,uint256[3] _cut_mesurements)external {\nDiamondedb memory u = diamonds[_hash];\nu.cut_date=_cut_date;\nu.cut_factoryloc=_cut_factoryloc;\nu.sort_name=_cut_name;\nu.cut_shape=_cut_shape;\nu.cut_grade=_cut_grade;\nu.polish_grade=_polish_grade;\nu.cut_mesurements=_cut_mesurements;\nstore(u,_hash);\n}\nfunction manufacture(bytes32 _hash,uint256 _man_date,string _man_loc,string _comp_name,string _material,string _product)external {\nDiamondedb memory u = diamonds[_hash];\nu.man_date=_man_date;\nu.man_loc=_man_loc;\nu.comp_name=_comp_name;\nu.material=_material;\nu.product=_product;\nstore(u,_hash);\n}\nfunction certificate(bytes32 _hash, uint256[3] _cer_measurements,uint256 _cer_weight,  string _cer_polish_grade, string _cer_cut_grade, string _process_hash)external {\nDiamondedb memory u =diamonds[_hash];\nu.cer_measurements=_cer_measurements;\nu.cer_weight=_cer_weight;\nu.cer_polish_grade=_cer_polish_grade;\nu.cer_cut_grade=_cer_cut_grade;\nu.process_hash=_process_hash;\nstore(u,_hash);\n}\nfunction store(Diamondedb _x,bytes32 _hash)private{\n    diamonds[_hash]=_x;\n}\n\n}\n",
  "sourcePath": "/Users/jefferson.ding/Desktop/DiaMonde/contracts/DiaMonde.sol",
  "compiler": {
    "name": "solc",
    "version": "0.4.24+commit.e67f0147.Emscripten.clang"
  },
  "schemaVersion": "3.0.23",
  "updatedAt": "2020-02-10T19:28:30.029Z",
  "devdoc": {
    "methods": {}
  },
  "userdoc": {
    "methods": {}
  }
}