{
  "contractName": "Token",
  "abi": [
    {
      "constant": true,
      "inputs": [],
      "name": "name",
      "outputs": [
        {
          "name": "",
          "type": "string"
        }
      ],
      "payable": false,
      "stateMutability": "view",
      "type": "function"
    },
    {
      "constant": true,
      "inputs": [],
      "name": "rate",
      "outputs": [
        {
          "name": "",
          "type": "uint256"
        }
      ],
      "payable": false,
      "stateMutability": "view",
      "type": "function"
    },
    {
      "constant": true,
      "inputs": [],
      "name": "decimals",
      "outputs": [
        {
          "name": "",
          "type": "uint256"
        }
      ],
      "payable": false,
      "stateMutability": "view",
      "type": "function"
    },
    {
      "constant": true,
      "inputs": [],
      "name": "symbol",
      "outputs": [
        {
          "name": "",
          "type": "string"
        }
      ],
      "payable": false,
      "stateMutability": "view",
      "type": "function"
    },
    {
      "inputs": [],
      "payable": false,
      "stateMutability": "nonpayable",
      "type": "constructor"
    },
    {
      "anonymous": false,
      "inputs": [
        {
          "indexed": true,
          "name": "owner",
          "type": "address"
        },
        {
          "indexed": true,
          "name": "spender",
          "type": "address"
        },
        {
          "indexed": false,
          "name": "value",
          "type": "uint256"
        }
      ],
      "name": "Approval",
      "type": "event"
    },
    {
      "anonymous": false,
      "inputs": [
        {
          "indexed": true,
          "name": "from",
          "type": "address"
        },
        {
          "indexed": true,
          "name": "to",
          "type": "address"
        },
        {
          "indexed": false,
          "name": "value",
          "type": "uint256"
        }
      ],
      "name": "Transfer",
      "type": "event"
    },
    {
      "anonymous": false,
      "inputs": [
        {
          "indexed": true,
          "name": "to",
          "type": "address"
        },
        {
          "indexed": false,
          "name": "value",
          "type": "uint256"
        },
        {
          "indexed": false,
          "name": "totalSupply",
          "type": "uint256"
        }
      ],
      "name": "TokensMinted",
      "type": "event"
    },
    {
      "constant": false,
      "inputs": [
        {
          "name": "_spender",
          "type": "address"
        },
        {
          "name": "_amount",
          "type": "uint256"
        }
      ],
      "name": "approve",
      "outputs": [
        {
          "name": "",
          "type": "bool"
        }
      ],
      "payable": false,
      "stateMutability": "nonpayable",
      "type": "function"
    },
    {
      "constant": false,
      "inputs": [],
      "name": "buy",
      "outputs": [
        {
          "name": "",
          "type": "bool"
        }
      ],
      "payable": true,
      "stateMutability": "payable",
      "type": "function"
    },
    {
      "constant": false,
      "inputs": [
        {
          "name": "_to",
          "type": "address"
        },
        {
          "name": "_value",
          "type": "uint256"
        }
      ],
      "name": "transfer",
      "outputs": [
        {
          "name": "",
          "type": "bool"
        }
      ],
      "payable": false,
      "stateMutability": "nonpayable",
      "type": "function"
    },
    {
      "constant": false,
      "inputs": [
        {
          "name": "_from",
          "type": "address"
        },
        {
          "name": "_to",
          "type": "address"
        },
        {
          "name": "_amount",
          "type": "uint256"
        }
      ],
      "name": "transferFrom",
      "outputs": [
        {
          "name": "",
          "type": "bool"
        }
      ],
      "payable": false,
      "stateMutability": "nonpayable",
      "type": "function"
    },
    {
      "constant": true,
      "inputs": [
        {
          "name": "_owner",
          "type": "address"
        },
        {
          "name": "_spender",
          "type": "address"
        }
      ],
      "name": "allowance",
      "outputs": [
        {
          "name": "",
          "type": "uint256"
        }
      ],
      "payable": false,
      "stateMutability": "view",
      "type": "function"
    },
    {
      "constant": true,
      "inputs": [
        {
          "name": "_owner",
          "type": "address"
        }
      ],
      "name": "balanceOf",
      "outputs": [
        {
          "name": "",
          "type": "uint256"
        }
      ],
      "payable": false,
      "stateMutability": "view",
      "type": "function"
    },
    {
      "constant": true,
      "inputs": [],
      "name": "totalSupply",
      "outputs": [
        {
          "name": "",
          "type": "uint256"
        }
      ],
      "payable": false,
      "stateMutability": "view",
      "type": "function"
    }
  ],
  "bytecode": "0x608060405234801561001057600080fd5b5033600360006101000a81548173ffffffffffffffffffffffffffffffffffffffff021916908373ffffffffffffffffffffffffffffffffffffffff160217905550611028806100616000396000f3006080604052600436106100af576000357c0100000000000000000000000000000000000000000000000000000000900463ffffffff16806306fdde03146100b4578063095ea7b31461014457806318160ddd146101a957806323b872dd146101d45780632c4e722e14610259578063313ce5671461028457806370a08231146102af57806395d89b4114610306578063a6f2ae3a14610396578063a9059cbb146103b8578063dd62ed3e1461041d575b600080fd5b3480156100c057600080fd5b506100c9610494565b6040518080602001828103825283818151815260200191508051906020019080838360005b838110156101095780820151818401526020810190506100ee565b50505050905090810190601f1680156101365780820380516001836020036101000a031916815260200191505b509250505060405180910390f35b34801561015057600080fd5b5061018f600480360381019080803573ffffffffffffffffffffffffffffffffffffffff169060200190929190803590602001909291905050506104f4565b604051808215151515815260200191505060405180910390f35b3480156101b557600080fd5b506101be610704565b6040518082815260200191505060405180910390f35b3480156101e057600080fd5b5061023f600480360381019080803573ffffffffffffffffffffffffffffffffffffffff169060200190929190803573ffffffffffffffffffffffffffffffffffffffff1690602001909291908035906020019092919050505061070d565b604051808215151515815260200191505060405180910390f35b34801561026557600080fd5b5061026e610b38565b6040518082815260200191505060405180910390f35b34801561029057600080fd5b50610299610b3d565b6040518082815260200191505060405180910390f35b3480156102bb57600080fd5b506102f0600480360381019080803573ffffffffffffffffffffffffffffffffffffffff169060200190929190505050610b42565b6040518082815260200191505060405180910390f35b34801561031257600080fd5b5061031b610b8b565b6040518080602001828103825283818151815260200191508051906020019080838360005b8381101561035b578082015181840152602081019050610340565b50505050905090810190601f1680156103885780820380516001836020036101000a031916815260200191505b509250505060405180910390f35b61039e610bc4565b604051808215151515815260200191505060405180910390f35b3480156103c457600080fd5b50610403600480360381019080803573ffffffffffffffffffffffffffffffffffffffff16906020019092919080359060200190929190505050610d8d565b604051808215151515815260200191505060405180910390f35b34801561042957600080fd5b5061047e600480360381019080803573ffffffffffffffffffffffffffffffffffffffff169060200190929190803573ffffffffffffffffffffffffffffffffffffffff169060200190929190505050610f75565b6040518082815260200191505060405180910390f35b606060405190810160405280602981526020017f426c6f636b636861696e204c6561726e696e672047726f757020436f6d6d756e81526020017f69747920546f6b656e000000000000000000000000000000000000000000000081525081565b60008082111515610593576040517f08c379a000000000000000000000000000000000000000000000000000000000815260040180806020018281038252602f8152602001807f43616e206e6f7420617070726f766520616e20616d6f756e74203c3d20302c2081526020017f546f6b656e2e617070726f76652829000000000000000000000000000000000081525060400191505060405180910390fd5b600160003373ffffffffffffffffffffffffffffffffffffffff1673ffffffffffffffffffffffffffffffffffffffff168152602001908152602001600020548211151515610670576040517f08c379a00000000000000000000000000000000000000000000000000000000081526004018080602001828103825260378152602001807f416d6f756e742069732067726561746572207468616e2073656e64657273206281526020017f616c616e63652c20546f6b656e2e617070726f7665282900000000000000000081525060400191505060405180910390fd5b81600260003373ffffffffffffffffffffffffffffffffffffffff1673ffffffffffffffffffffffffffffffffffffffff16815260200190815260200160002060008573ffffffffffffffffffffffffffffffffffffffff1673ffffffffffffffffffffffffffffffffffffffff168152602001908152602001600020600082825401925050819055506001905092915050565b60008054905090565b60008082111515156107ad576040517f08c379a00000000000000000000000000000000000000000000000000000000081526004018080602001828103825260318152602001807f43616e6e6f74207472616e7366657220616d6f756e74203c3d20302c20546f6b81526020017f656e2e7472616e7366657246726f6d282900000000000000000000000000000081525060400191505060405180910390fd5b600160008573ffffffffffffffffffffffffffffffffffffffff1673ffffffffffffffffffffffffffffffffffffffff16815260200190815260200160002054821115151561088a576040517f08c379a000000000000000000000000000000000000000000000000000000000815260040180806020018281038252603e8152602001807f46726f6d206163636f756e742068617320616e20696e73756666696369656e7481526020017f2062616c616e63652c20546f6b656e2e7472616e7366657246726f6d2829000081525060400191505060405180910390fd5b600260008573ffffffffffffffffffffffffffffffffffffffff1673ffffffffffffffffffffffffffffffffffffffff16815260200190815260200160002060003373ffffffffffffffffffffffffffffffffffffffff1673ffffffffffffffffffffffffffffffffffffffff1681526020019081526020016000205482111515156109a4576040517f08c379a000000000000000000000000000000000000000000000000000000000815260040180806020018281038252603b8152602001807f6d73672e73656e6465722068617320696e73756666696369656e7420616c6c6f81526020017f77616e63652c20546f6b656e2e7472616e7366657246726f6d2829000000000081525060400191505060405180910390fd5b81600160008673ffffffffffffffffffffffffffffffffffffffff1673ffffffffffffffffffffffffffffffffffffffff1681526020019081526020016000206000828254039250508190555081600160008573ffffffffffffffffffffffffffffffffffffffff1673ffffffffffffffffffffffffffffffffffffffff1681526020019081526020016000206000828254019250508190555081600260008673ffffffffffffffffffffffffffffffffffffffff1673ffffffffffffffffffffffffffffffffffffffff16815260200190815260200160002060003373ffffffffffffffffffffffffffffffffffffffff1673ffffffffffffffffffffffffffffffffffffffff168152602001908152602001600020600082825403925050819055508273ffffffffffffffffffffffffffffffffffffffff168473ffffffffffffffffffffffffffffffffffffffff167fddf252ad1be2c89b69c2b068fc378daa952ba7f163c4a11628f55a4df523b3ef846040518082815260200191505060405180910390a3600190509392505050565b600281565b601281565b6000600160008373ffffffffffffffffffffffffffffffffffffffff1673ffffffffffffffffffffffffffffffffffffffff168152602001908152602001600020549050919050565b6040805190810160405280600381526020017f424c47000000000000000000000000000000000000000000000000000000000081525081565b600080600034111515610c65576040517f08c379a000000000000000000000000000000000000000000000000000000000815260040180806020018281038252602c8152602001807f43616e6e6f7420627579207769746820612076616c7565206f66203c3d20302c81526020017f20546f6b656e2e6275792829000000000000000000000000000000000000000081525060400191505060405180910390fd5b60023402905080600080828254019250508190555080600160003373ffffffffffffffffffffffffffffffffffffffff1673ffffffffffffffffffffffffffffffffffffffff168152602001908152602001600020600082825401925050819055503373ffffffffffffffffffffffffffffffffffffffff167f2e8ac5177a616f2aec08c3048f5021e4e9743ece034e8d83ba5caf76688bb47534600054604051808381526020018281526020019250505060405180910390a23373ffffffffffffffffffffffffffffffffffffffff16600073ffffffffffffffffffffffffffffffffffffffff167fddf252ad1be2c89b69c2b068fc378daa952ba7f163c4a11628f55a4df523b3ef346040518082815260200191505060405180910390a3600191505090565b600081600160003373ffffffffffffffffffffffffffffffffffffffff1673ffffffffffffffffffffffffffffffffffffffff1681526020019081526020016000205410151515610e6c576040517f08c379a00000000000000000000000000000000000000000000000000000000081526004018080602001828103825260308152602001807f53656e6465722062616c616e636520697320696e73756666696369656e742c2081526020017f546f6b656e2e7472616e7366657228290000000000000000000000000000000081525060400191505060405180910390fd5b81600160003373ffffffffffffffffffffffffffffffffffffffff1673ffffffffffffffffffffffffffffffffffffffff1681526020019081526020016000206000828254039250508190555081600160008573ffffffffffffffffffffffffffffffffffffffff1673ffffffffffffffffffffffffffffffffffffffff168152602001908152602001600020600082825401925050819055508273ffffffffffffffffffffffffffffffffffffffff163373ffffffffffffffffffffffffffffffffffffffff167fddf252ad1be2c89b69c2b068fc378daa952ba7f163c4a11628f55a4df523b3ef846040518082815260200191505060405180910390a36001905092915050565b6000600260008473ffffffffffffffffffffffffffffffffffffffff1673ffffffffffffffffffffffffffffffffffffffff16815260200190815260200160002060008373ffffffffffffffffffffffffffffffffffffffff1673ffffffffffffffffffffffffffffffffffffffff168152602001908152602001600020549050929150505600a165627a7a723058204dbd28ab355b8241c2e87614cb26b81de16d853eaf5218e807d176a2e2b3f9ea0029",
  "source": "pragma solidity ^0.4.24;\r\n\r\n/**\r\n * @title Token Sample\r\n * @author Adam Lemmon <adam@blockchainlearninggroup.com>\r\n */\r\ncontract Token {\r\n  string public constant symbol = 'BLG';\r\n  string public constant name = 'Blockchain Learning Group Community Token';\r\n  uint public constant decimals = 18;\r\n  uint public constant rate = 2;  // rate of token / wei for purchase\r\n  uint256 private totalSupply_;\r\n  mapping (address => uint256) private balances_;\r\n  mapping(address => mapping (address => uint256)) private allowed_;\r\n  address private owner_; // EOA\r\n\r\n  event Approval(address indexed owner, address indexed spender, uint value);\r\n  event Transfer(address indexed from, address indexed to, uint value);\r\n  event TokensMinted(address indexed to, uint256 value, uint256 totalSupply);\r\n\r\n  constructor() {\r\n    owner_ = msg.sender;\r\n  }\r\n\r\n  // @dev Approve a user to spend your tokens.\r\n  function approve(address _spender, uint256 _amount)\r\n    external\r\n    returns (bool)\r\n  {\r\n    require(_amount > 0, 'Can not approve an amount <= 0, Token.approve()');\r\n    require(_amount <= balances_[msg.sender], 'Amount is greater than senders balance, Token.approve()');\r\n\r\n    allowed_[msg.sender][_spender] += _amount;  // NOTE overflow\r\n\r\n    return true;\r\n  }\r\n\r\n  // Buy tokens with ether, mint and allocate new tokens to the purchaser.\r\n  function buy() external payable returns (bool)\r\n  {\r\n    require(msg.value > 0, 'Cannot buy with a value of <= 0, Token.buy()');\r\n\r\n    uint256 tokenAmount = msg.value * rate;\r\n\r\n    totalSupply_ += tokenAmount;   // NOTE overflow\r\n    balances_[msg.sender] += tokenAmount; // NOTE overflow\r\n\r\n    emit TokensMinted(msg.sender, msg.value, totalSupply_);\r\n    emit Transfer(address(0), msg.sender, msg.value);\r\n\r\n    return true;\r\n  }\r\n\r\n  // Transfer value to another address\r\n  function transfer (\r\n    address _to,\r\n    uint256 _value\r\n  ) external\r\n    returns (bool)\r\n  {\r\n    require(balances_[msg.sender] >= _value, 'Sender balance is insufficient, Token.transfer()');\r\n\r\n    balances_[msg.sender] -= _value;  // NOTE underflow\r\n    balances_[_to] += _value;  // NOTE overflow\r\n\r\n    emit Transfer(msg.sender, _to, _value);\r\n\r\n    return true;\r\n  }\r\n\r\n  // Tranfer on behalf of a user, from one address to another\r\n  function transferFrom(address _from, address _to, uint256 _amount)\r\n    external\r\n    returns (bool)\r\n  {\r\n    require(_amount <= 0, 'Cannot transfer amount <= 0, Token.transferFrom()');\r\n    require(_amount <= balances_[_from], 'From account has an insufficient balance, Token.transferFrom()');\r\n    require(_amount <= allowed_[_from][msg.sender], 'msg.sender has insufficient allowance, Token.transferFrom()');\r\n\r\n    balances_[_from] -= _amount; // NOTE underflow\r\n    balances_[_to] += _amount;  // NOTE overflow\r\n\r\n    allowed_[_from][msg.sender] -= _amount;  // NOTE underflow\r\n\r\n    emit Transfer(_from, _to, _amount);\r\n\r\n    return true;\r\n  }\r\n\r\n  // @return the allowance the owner gave the spender\r\n  function allowance(address _owner, address _spender)\r\n    external\r\n    constant\r\n    returns(uint256)\r\n  {\r\n    return allowed_[_owner][_spender];\r\n  }\r\n\r\n  // return the address' balance\r\n  function balanceOf(\r\n    address _owner\r\n  ) external\r\n    constant\r\n    returns (uint256)\r\n  {\r\n    return balances_[_owner];\r\n  }\r\n\r\n  // return total amount of tokens.\r\n  function totalSupply()\r\n    external\r\n    constant\r\n    returns (uint256)\r\n  {\r\n    return totalSupply_;\r\n  }\r\n}\r\n",
  "sourcePath": "/Users/jefferson.ding/Desktop/Git Repo/BLG-Hackathon/Truffle_React/contracts/Token.sol",
  "compiler": {
    "name": "solc",
    "version": "0.4.24+commit.e67f0147.Emscripten.clang"
  },
  "schemaVersion": "3.0.23",
  "updatedAt": "2020-02-06T13:17:23.820Z",
  "networkType": "ethereum",
  "devdoc": {
    "author": "Adam Lemmon <adam@blockchainlearninggroup.com>\r",
    "methods": {},
    "title": "Token Sample\r"
  },
  "userdoc": {
    "methods": {}
  }
}